:020000040801F1
:100000001853012045020108F7120108F3120108F4
:10001000F5120108890B01089D4F0108000000003E
:100020000000000000000000000000009D01010829
:10003000F50B010800000000E1010108011E0108A4
:100040005F0201085F0201085F0201085F02010808
:100050005F0201085F020108410F0108650F0108F6
:100060005F0201085F0201085F0201085F020108E8
:100070005F0201085F0201085F0201085F020108D8
:100080005F0201085F0201085F0201085F020108C8
:100090005F0201085F0201085F0201085F020108B8
:1000A0005F0201085F0201085F0201085F020108A8
:1000B000711E0108751E01085F0201085F02010838
:1000C0005F0201085F0201085F0201085F02010888
:1000D0005F0201085F020108D11F01085F020108E9
:1000E000630F0108891701085F0201085F02010818
:1000F0005F0201085F0201085F0201085F02010858
:100100005F0201085F0201085F0201085F02010847
:100110005F0201085F0201085F0201085F02010837
:100120005F0201085F0201085F0201085F02010827
:100130005F0201085F0201085F0201085F02010817
:100140005F0201085F0201085F0201087D130108D8
:100150005F0201085F0201085F020108D71F010862
:100160005F0201085F0201085F0201085F020108E7
:100170005F0201085F0201085F0201085F020108D7
:100180005F0201085F020108DFF80CD000F0AEFB4F
:10019000004800470170010818530120234B1968DB
:1001A0000868B0E8F04F80F309884FF0000080F352
:1001B000118870470000000003480068006880F361
:1001C000088862B600DF00BF08ED00E0DFF80C0031
:1001D000016841F470010160704700BF88ED00E0E4
:1001E000EFF30980114B1A681EF0100F08BF20EDC5
:1001F000108A20E9F04F106008B54FF0100080F32E
:10020000118807F04DFE4FF0000080F31188BDE823
:10021000084019680868B0E8F04F1EF0100F08BFDA
:10022000B0EC108A80F30988704700BFE800002016
:100230004FF0100080F3118870474FF0000080F3FA
:10024000118870470648804706480047FEE7FEE7EA
:10025000FEE7FEE7FEE7FEE7FEE7FEE7FEE7FEE776
:10026000211E01088901010840EA01039B0703D010
:1002700009E008C9121F08C0042AFAD203E011F8E5
:10028000013B00F8013B521EF9D27047D2B201E0A7
:1002900000F8012B491EFBD270470022F6E710B58B
:1002A00004460846114602462046FFF7EFFF204667
:1002B00010BD10B5044604E00B7800F8013B03B113
:1002C000491C521EF8D2204610BD0146002000E015
:1002D000401C0A5C002AFBD1704710B5002200E0E8
:1002E000521C835C8C5CA34201D1002BF8D1D8B2A4
:1002F000E1B2401A10BD30B504460020034600E0CC
:100300005B1C934203D2E05CCD5C401BF8D030BD57
:100310002DE9FE4F074681EA0300C00F0E4601900B
:1003200021F0004123F00044B81AA14105D238461B
:10033000314617461E460B46024623F00040104346
:1003400004D13846314603B0BDE8F08F350DC5F312
:100350000A00C3F30A510290401A0090402868DA5C
:10036000C3F3130040F4801B0198924620B1002390
:10037000D2EB030A63EB0B0B00985946C0F1400225
:10038000504600F0D0F980460C4650465946009A37
:1003900000F0D8F9C0197141EF1785EA11533B43BA
:1003A00040D0019A52B3009A012A11DC0022801A2F
:1003B0004FF0004361EB055103EA05538018CDE986
:1003C000002341F580114246234600F010FABAE7B7
:1003D0002E050025401B61EB0601401941F58012F6
:1003E000001852412818A6F5001343EB020140EA19
:1003F000D470294318EB0808644113E064084FEAFD
:1004000038084FF0000244EAC0744FEA0553801ADE
:1004100061EB0301801841F5801149084FEA300073
:10042000801859414246234603B0BDE8F04F00F022
:10043000D1B90198012240000023D0EB020263EB06
:10044000E07301984FEAE074381A66EB0401EBE7B9
:1004500083F000435CE781F0004159E72DE9FE4F4E
:1004600081EA030421F0004504F0004423F0004138
:100470004FF0000A009450EA050302D052EA01034B
:1004800004D10020014603B0BDE8F08FC1F30A5348
:10049000C5F30A541C44A0FB02B3C5F3130545F48D
:1004A000801CC1F3130141F480180CFB023300FBE4
:1004B000083EA4F2F334810A930A41EA8C5143EADC
:1004C00088530194A1FB03474FEA9C2505FB037366
:1004D0004FEA982601FB06373D05260545EA143507
:1004E000BBEB06016EEB0503850E920E45EA8C15FB
:1004F00042EA8812A5FB0206261E67EB00070C0DD8
:1005000044EA0334A41947EB1350C1F313064FF028
:10051000000319464FEA033343EA165343EA040340
:10052000019CE5FB0201A4F10C040294009C4FEA3B
:100530000632CDE900A400F05AF9A4E72DE9F04D08
:1005400081EA030404F0004B21F0004714464FF009
:10055000000A23F0004150EA070220D054EA0102C9
:100560001DD0C1F30A550246C1F31300C7F30A5662
:10057000C7F3130340F4801143F48013A6EB05087E
:10058000101BD64608F2FD3873EB010002D308F1C8
:10059000010801E092185B41B8F1000F03DA002076
:1005A0000146BDE8F08D00204FF480150646074651
:1005B0000EE0B2EB040C73EB010C04D3121B0643E8
:1005C00063EB01032F436D084FEA300092185B4143
:1005D00050EA050CEDD152EA030012D082EA040081
:1005E00083EA0105284303D100224FF0004308E0CD
:1005F000101B8B4102D20122002302E06FF00102A6
:1006000053101AEB060047EB085110EB0A0041EBC0
:100610000B01BDE8F04D00F0DDB80EB540F23341FE
:1006200002910021CDE900110A460B4600F0DFF8E7
:1006300003B000BD00F0004230F000400DD0C10D0D
:1006400001F5607142EA01510022C0F31600520721
:1006500042EAD0024007114370470020014670472C
:1006600001F0004230B421F0004150EA010306D00D
:100670000B0DA3F56073C1F31301002B02DC30BC3A
:1006800000207047440F44EAC104C100A01830BCE8
:1006900000EBC35000F068B830B50B4601460020AF
:1006A0002022012409E021FA02F59D4205D303FA34
:1006B00002F5491B04FA02F52844151EA2F10102B5
:1006C000F1DC30BD2DE9F05F0546002092469B46E7
:1006D00088460646814640241BE028464146474658
:1006E000224600F015F952465B46801A994110D314
:1006F00010461946224600F016F82D1A67EB01083D
:100700004F4622460120002100F00DF817EB0009AA
:100710004E41201EA4F10104DFDC484631462A4642
:100720004346BDE8F09F202A04DB203A00FA02F19C
:10073000002070479140C2F1200320FA03F31943CF
:1007400090407047202A06DBCB17203A41FA02F08E
:1007500043EAE071704741FA02F3D040C2F120024F
:1007600091400843194670470029A8BF7047401CB4
:10077000490008BF20F00100704710B4B0FA80FCB7
:1007800000FA0CF050EA010404BF10BC704749B1F4
:10079000CCF1200421FA04F411FA0CF118BF012164
:1007A00021430843A3EB0C01CB1D0106000A002BDB
:1007B000BEBF002010BC704700EBC350104400299E
:1007C000A4BF10BC7047401C490008BF20F00100C6
:1007D00010BC704710B5002B08DA401C41F1000135
:1007E00092185B411A4301D120F0010010BD2DE9A0
:1007F000F04D92469B4611B1B1FA81F202E0B0FA97
:1008000080F220329046FFF78EFF06460F4640EA00
:100810000A0041EA0B0152465B46084303D13046C9
:100820003946BDE8F08D194652EA010015D0C8F1ED
:100830004002504600F06CF804460D4650465946BA
:100840004246FFF770FF084301D0012000E000207E
:10085000044345EAE07526432F430A984FEAD6251C
:10086000A0EB08000A304FEA46534FF0000245EA79
:1008700047554FEAD72402D500200146D1E70105AC
:1008800050196141DDE9084500196941BDE8F04DA5
:10089000A0E7C1F30A52C1F3130140F2FF3341F460
:1008A00080119A4202DA00200146704740F2334339
:1008B0009A42A2F2334202DC524200F029B8FFF71A
:1008C00032BF000030B5002904DB4FF00044404245
:1008D00064EB0101002B04DB4FF00044524264EB57
:1008E0000303994208BF904230BD0000064C074DFB
:1008F00006E0E06840F0010394E8070098471034F0
:10090000AC42F6D3FFF744FCFC9001081C910108AF
:10091000202A04DB203A21FA02F00021704721FA54
:1009200002F3D040C2F120029140084319467047BB
:1009300070B501EB020410F8015B15F0070301D15B
:1009400010F8013B2A1106D110F8012B03E010F832
:10095000016B01F8016B5B1EF9D12B0705D4002355
:10096000521E0FD401F8013BFAE710F8013B02F1E7
:100970000202A1EB030303E013F8015B01F8015B42
:10098000521EF9D5A142D6D3002070BD21B1816895
:1009900041F0010181607047816821F001018160AF
:1009A0007047000010B5094C2268094902EA0102AB
:1009B000D0E9001341EA0301D0E9023043EA000321
:1009C00041EA030141EA0201216010BD0423014014
:1009D000E030FCFF21B1816841F480718160704793
:1009E000816821F480718160704721B1816841F490
:1009F000007181607047816821F4007181607047E7
:100A000030B542680F4B1A400C790B6842EA042259
:100A10001343436083680C4A1340D1E903422243E5
:100A20004D798C6844EA450422431A438260C26AC5
:100A300022F47002097D491EC9B242EA0151C16225
:100A400030BD0000FFFEFFFCFDF7FFC070B50726BC
:100A500009290ED9D0F80CC0A1F10A0404EB440412
:100A6000A6402CEA060CA3404CEA030CC0F80CC0CC
:100A700007E0056901EB4104A640B543A3401D43CF
:100A800005611F23072A09D2446B521E02EB820222
:100A900093409C4391400C43446370BD0D2A09D29E
:100AA000046BD21F02EB820293409C4391400C43A3
:100AB000046370BDC46A0D3A02EB820293409C430A
:100AC00091400C43C46270BD816841F080418160F7
:100AD00070470000074930B1D1F8040340F400002A
:100AE000C1F804037047D1F8040320F40000C1F8F2
:100AF000040370470020014010B5074C20600846F1
:100B000000F00CF820680028FCD1BDE8104000215E
:100B10004FF0804001F0EEB9180000203EB50446C9
:100B20004FF080450021284601F0E4F90022012120
:100B3000284601F005FA022C02D0012C03D005E072
:100B40000B20019002E042F6DF6001900520ADF835
:100B500000000020ADF80800ADF802006946284604
:100B600001F0F8F90121284601F0C1F901212846D8
:100B700001F0B2F901221146284601F0E1F9012104
:100B8000284601F0B7F93EBDFEE721B1016841F00A
:100B9000010101607047016821F0010101607047A7
:100BA00030B50368124A1340CC680A682243D1E981
:100BB00005452C432243CC6922430C6A22434C6AEC
:100BC00022438C6A22434C6B22438C6B22431A4390
:100BD0000260426922F00703D1E90B2422431A4341
:100BE00042610A6942604A6882608968C16030BDBA
:100BF0003F801CF0704700000249486048680028A8
:100C0000FCD170476400002011490968114A12683C
:100C1000A8B1012801D0002070474FF0EE3012B18A
:100C200039B1AB207047814201D1002070470120CB
:100C30007047824201D1012070470020704711B1F6
:100C40001AB1AB20704700207047012070470000A8
:100C50000080000800C0000810B50221102000F03C
:100C600017FA08280BD10021054800F061FA08287E
:100C700005D10221BDE81040182000F009BA10BDCE
:100C8000008000082DE9F0470024651EDFF8488148
:100C9000D8F80000DFF84491D9F800104FF0EE3298
:100CA0004F4F504E904225D0A84207D0F0B3FFF7E7
:100CB000D3FF082800D10820BDE8F08771B1914228
:100CC00013D10221102000F0E3F90828F4D100210B
:100CD000484600F02DFA0828EED1ECE7022110205A
:100CE00000F0D6F90828E7D1E5E7FFF7B5FF0828B7
:100CF000E2D1E0E731B1491C2BD0FFF7ADFF082866
:100D0000DAD1D8E7D8F8081057F82400814200D18A
:100D100025B2AC420DD0334900F0B2F8012808D01A
:100D200057F82400316800F0D1F800E01EE00828F0
:100D3000C2D1641C402CE5D30021404600F0F8F9F4
:100D40000828B9D10221182000F0A2F90828B3D14F
:100D5000B1E70221182000F09BF90828ACD100214E
:100D6000404600F0E5F90828A6D1A4E739B3491CAC
:100D70002AD0C846D8F8081057F82400814200D17C
:100D800025B2AC420BD0174900F07AF8012806D002
:100D900057F82400316800F099F808288CD1641CB9
:100DA000402CE7D30021404600F0C2F9082883D147
:100DB0000221102000F06CF9082887D17BE7FFF7AB
:100DC0004BFF082888D176E70221182000F060F94F
:100DD000082889D070E700000080000800C00008E3
:100DE000F84D0120C80100202DE9F047074688464C
:100DF0001F4D00240020FFF707FF012803D020B17A
:100E0000AB20BDE8F087182601E01A4D10264FF000
:100E1000EE31284600F08CF90828F2D141463846D8
:100E200000F054F80828ECD1DFF84C80DFF84C9043
:100E300058F82400B8420CD0104900F021F80128DD
:100E400007D058F82400D9F8001000F03FF808281F
:100E5000D7D1641C402CEBD30221304600F018F9A6
:100E60000828CED12846BDE8F047002100F060B93F
:100E70000080000800C00008F84D0120C8010020D3
:100E80002DE9F04105460E4601240F4F0020FFF7E3
:100E9000BBFEAB2807D007EB8032401C391F01EBAB
:100EA0008030121D0BE0AB20BDE8F0810168A94243
:100EB00004D150F8040C3060002402E0083890425D
:100EC000F4D82046F0E700000080000870B5054621
:100ED0000E46124C0120FFF797FEAB2807D004EB1B
:100EE00080340E49401C091F01EB803005E0AB2027
:100EF00070BD2168491C04D008348442F9D3802095
:100F000070BD3146204600F013F90828F8D1294673
:100F1000201DBDE8704000F00BB900000080000803
:100F200070B504460D4629462046FFF7CFFF8028BE
:100F300005D129462046BDE87040FFF755BF70BD7A
:100F400010B5012000F05CF8002809D0002000F066
:100F500097FE07F0F7F8BDE81040012000F04AB80E
:100F600010BD704710B5022000F04AF8002809D0E3
:100F70000548D0F8800040698047BDE81040022055
:100F800000F038B810BD0000B40A002030B585B0BC
:100F90000121084600F0FEF90121880300F02AFA39
:100FA00000258DF810508DF813500124039403A9E7
:100FB0000F4800F0FDF80021084600F0BBFE009449
:100FC0008DF8045008208DF805008DF8064068461D
:100FD00000F026F806208DF808008DF809408DF8FD
:100FE0000A408DF80B4002A800F086F905B030BD2C
:100FF000000002400149086070470000143C0140B5
:1010000001460020054A12680A40044B14331B684D
:101010000B4202D0002A00D001207047003C014062
:1010200030B51A4A8379016853B313688B43136050
:10103000111D0B680468A3430B60017911440B6810
:10104000046823430B60114C0834216803689943FA
:101050002160231D19680568A94319604179102989
:1010600005D011440A68006802430A6030BD216857
:10107000026811432160196800680143196030BD9E
:101080000079104402688A43026030BD003C014090
:1010900030B50546002429B1012927D0022928D0DE
:1010A0004FF4407400F074F808281ED1124B1868F1
:1010B00020F440701860186820431860186820F009
:1010C000F8001860186845F00201084318601868B5
:1010D00040F48030186000F05BF8196821F00201DC
:1010E0001960196821F0F801196030BD4FF480745F
:1010F000D8E74FF40074D5E7103C024008200B49B4
:101100000A68D20301D5012070470A68D20601D5CA
:10111000052070470A6812F0EF0F01D006207047D3
:1011200009688907FBD50720704700000C3C024086
:1011300030B504460D4600F02BF8082813D10A4BB1
:10114000186820F440701860186840F40070186047
:10115000186840F001001860256000F019F819685F
:1011600021F00101196030BD103C024005480068C3
:10117000002805DA034804490C380160034901607E
:1011800070470000103C024023016745AB89EFCD5A
:1011900000B5FFF7B3FF01E0FFF7B0FF0128FBD078
:1011A00000BD022000F06CFD3220FFF725FDF8E7BE
:1011B000F0B5002201274FF0030C07FA02F40B6888
:1011C0002340A3422DD1046853000CFA03F5AC432D
:1011D00004600C7906689C40344304600E79012E4B
:1011E00001D0022E12D18468AC4384604C798568AA
:1011F0009C402C438460456807FA02F4A54345608F
:1012000044688D799540ADB22C434460C568560062
:101210000CFA06F4A543C560CC799C40C3681C4316
:10122000C460521C102AC8D3F0BD10B54B07DB0EAA
:101230009A40C90800EB8100016A0F249C40A14339
:101240000162016A1143016210BD4183704701834D
:1012500070474069806880B27047D0F8CC00006861
:10126000C0F341407047084490F89B02704700EB80
:101270008100D0F85002704710B5044600200023CA
:10128000C4F8103204EB8002C2F81432C2F85032B3
:10129000221882F88C32401CC0B20F28F2D30820EA
:1012A000A4F8B202204602F04BFF204602F0E0FC18
:1012B000204602F0D3FB0121204602F0A1FF204688
:1012C00002F05BFC204602F00BFD002010BDD0F8C0
:1012D0001002704710B502F01DFF002010BD002263
:1012E000431883F89B2200EB4113C3F8C02202F09D
:1012F0004DBEFEE7FEE7704730B50F23C278017898
:1013000001244FF0E0250AB3154A126802F4E062A6
:10131000C2F5E062C2F30722C2F1040CD340427866
:1013200002FA0CF290F802C00CEA030C4CEA020C30
:101330004FEA0C120B4BCA54007800F01F018C408E
:10134000400905EB8000C0F8004130BD01F01F00EE
:101350008440480905EB8000C0F8804130BD0000A2
:101360000CED00E000E400E0024908430249086097
:10137000704700000000FA050CED00E0014801F0A4
:10138000EFBF00000406002001490862704700001A
:1013900000000E42044A19B1116801431160704700
:1013A000116881431160704730380240044A19B116
:1013B00011680143116070471168814311607047E3
:1013C00034380240044A19B1116801431160704772
:1013D000116881431160704740380240044A19B1D6
:1013E00011680143116070471168814311607047B3
:1013F00020380240044A19B1116801431160704756
:10140000116881431160704744380240044A19B1A1
:101410001168014311607047116881431160704782
:101420002438024030B5254B196801F00C01244CDA
:10143000F1B1651004291DD008291DD00460196878
:1014400001F0F00109091F4A545C0168E140416064
:101450001C6804F4E054A40A145D21FA04F48460C6
:101460001B6803F460435B0BD25CD140C16030BDAC
:101470000460E4E70560E2E7104A121F1168C1F357
:10148000805C116801F03F01BCF1000F06D0B5FB94
:10149000F1F11468C4F38814614305E0B4FBF1F181
:1014A0001468C4F3881461431268C2F30142521CE9
:1014B0005200B1FBF2F10160C1E7000008380240C0
:1014C0000024F4009C00002002460020510901295C
:1014D0000BD002290DD00949096802F01F0201232F
:1014E00093400B4200D001207047044974390968C9
:1014F000F3E70249091F0968EFE70000743802406A
:101500000149086070470000800E474201490860A9
:10151000704700003C0E4742C0F30121032907D168
:10152000074B196821F4F81206490140114319606C
:10153000034A68321168C0F30B0001431160704721
:1015400008380240FFFCFF0F2DE9F04110B10128DF
:1015500006D102E0344D354C02E0354D334C1034A9
:1015600040F225584146284600F0ACFD00264FF4D5
:10157000006730B34146284600F030FD284600F0B1
:101580003DFE0146A068D0F800288154A068D0F83C
:101590000018491CC0F80018A068D0F800183A4696
:1015A000914201D3C0F80068A068D0F80418D0F8C0
:1015B000000806F076FA20B100224146284600F0E5
:1015C000A1FD40F227784146284600F07BFD002827
:1015D00027D04146284600F001FDE068D0F8041805
:1015E000415C284600F00EFEE068D0F80418491C63
:1015F000C0F80418E068D0F80418B94201D3C0F864
:101600000468E068D0F80418D0F8000806F043FA3F
:10161000002806D041462846BDE8F041002200F0EF
:1016200071BDBDE8F081000000440040380B00208F
:10163000001401402DE9FE4F04460E464E48002797
:1016400000EB04152F606F602C714B4B04EB0420F2
:10165000203303EB0010A8604FF0010808EB4401B1
:1016600001EB012103EBC101E9604AB1434A176074
:1016700014719060D160103A176014719060D1605D
:101680003F4814B1012C05D008E000680121FFF7A4
:1016900099FE03E040680121FFF7ACFE3848384965
:1016A0000830103150F8240051F82410084301216B
:1016B000FFF770FE3248DFF8CC901038025D001F53
:1016C000015D59F82400FFF7B0FD2D4809F1080A23
:1016D0000E38025D001F015D5AF82400FFF7A5FDDA
:1016E0008DF80A708DF80B804FF0020B8DF808B062
:1016F00023480A3830F8140001908DF809B059F8E1
:10170000240001A9FFF754FD8DF808B01C48801F84
:1017100030F8140001905AF8240001A9FFF748FDA1
:10172000A9F10809314659F8240000F007FD1448D2
:101730000C38005D8DF800000A208DF801008DF84E
:1017400002708DF803806846FFF7D6FD59F8240033
:1017500040F2277100F042FC59F82400012240F2C7
:10176000255100F0CFFC59F82400012100F03EFC87
:101770002846BDE8FE8F0000380B0020882B002093
:10178000C88A01087800002010B54FF48054204624
:1017900000F0AAF8002807D0204600F01BF86001EE
:1017A000BDE81040FFF726BC10BD010901EB810127
:1017B000490000F00F000844C0B27047002103E068
:1017C000491CC9B20A38C0B20A28F9D2090740EA4E
:1017D00011607047000980B240F08000C1430348A7
:1017E000026802F080021143016070470C2800403B
:1017F00010B501210807FFF7E5FD0120FFF7C4FD43
:101800000120FFF77DFE6120FFF75EFE0028FAD081
:101810004FF40070FFF780FE0120FFF777FE00F025
:101820009FF90C487F214160FF2181600021016008
:1018300000F0BCF8042000F0B5F9002000F074F9C5
:101840000121880300F090F8BDE81040012000F06D
:10185000BDB90000844B012000200C4A11684906E4
:1018600011D4411E11609313116801F04001401C16
:10187000984201D00029F7D01068400601D5012018
:101880007047002070470120704700000C2800407E
:101890000248016821F08001016070470C28004077
:1018A00010B502460C460E4801680E480140080C6F
:1018B000E070C1F30423637001F03F03A370C1F330
:1018C00042312170002A0AD1FFF76FFFE070607883
:1018D000FFF76BFF6070A078FFF767FFA07010BD87
:1018E000042800403FFFFF0000210B4A126802F06D
:1018F0000403094A383A126803EAD03302401A4313
:10190000054B343B1B6803EA10101AB10004000CAD
:1019100000D00121084670474028004010B502461B
:101920000C460F4801680F480140C1F30540207084
:10193000C1F30623637001F07F03A37001F48001FB
:10194000090CE170002A0AD1FFF72FFF20706078A0
:10195000FFF72BFF6070A078FFF727FFA07010BD86
:10196000002800407F7F7F0030B50F4DCA222A60DB
:1019700053222A600C4C0C4B1C3C20F004021C33FC
:1019800000F0040031B1216811432160196801435E
:10199000196005E02168914321601968814319604D
:1019A000FF20286030BD00002428004070B50446A8
:1019B0000025114ECA20306053203060FFF74CFFE5
:1019C000A8B10D481C38016821F040010160016890
:1019D0002268114301600848A16814380160016859
:1019E000626841EA02410160FFF752FF0125FF20D2
:1019F0003060284670BD00002428004070B50546C0
:101A00000C46002635B96078C10603D520F01000D9
:101A10000A3060702DB16078FFF7C7FEA078FFF73D
:101A2000C4FE55B1A078E17840EA0145607821789C
:101A3000000240EA413005430FE0E078FFF7BEFEC8
:101A400005046078FFF7BAFE45EA0025A078FFF7A5
:101A5000B5FE0543207845EA40350B4CCA2020608E
:101A600053202060FFF7F8FE50B1084805400648B3
:101A700020380560FFF70CFF00F072F800B1012676
:101A8000FF202060304670BD242800403FFFFF004B
:101A900070B505460C4600262148002135B1006886
:101AA000400608D52078FFF780FE05E00068400674
:101AB00002D4E17000E0E17055B1A078217840EAED
:101AC00001456078E178000240EA014005430FE0FB
:101AD0002078FFF773FE05046078FFF76FFE45EA94
:101AE0000025A078FFF76AFE0543E07845EA004547
:101AF0000B4CCA201C34206053202060FFF7ACFE42
:101B000050B108480540064808380560FFF7C0FE98
:101B100000F026F800B10126FF202060304670BD9D
:101B2000082800407F7F7F000549CA220A605322AF
:101B30000A60034A103A1060FF20086070470000F6
:101B40002428004010B505490120FFF7E7FE0349AE
:101B5000BDE81040091D0120FFF7A2BE540100207E
:101B600010B500200E4BCA211960532119600C4A90
:101B7000183A116821F0A00111604FF40034116887
:101B800001F02001401CA04201D00029F7D01068CC
:101B9000800601D5012000E00020FF21196010BD62
:101BA00024280040084ACA211160532111600649C7
:101BB0001C390B6823F007030B600B6803430B60B1
:101BC000FF201060704700002428004010B500215D
:101BD000124BCA221A6053221A60104A1C3A28B1CA
:101BE000106840F480601060012014E0106820F458
:101BF00080601060094A183A9413106800F00400DD
:101C0000491CA14201D00028F7D01068400701D438
:101C1000002000E00120FF21196010BD24280040B1
:101C20001CB504460E48012150F82400FFF7B2FB12
:101C30000B48083830F81400009001208DF804009B
:101C400000218DF806108DF8070002208DF80500A0
:101C50000448694650F82400FFF7AAFA1CBD0000AA
:101C6000F48A01088C0000200349044A31F810105E
:101C700052F8200001837047EC8A01088C00002094
:101C8000044951F820104A69034B33F810004240D0
:101C90004A6170478C000020EC8A010870B586B05C
:101CA00004460D462148012150F82400FFF772FB3D
:101CB00001218803FFF79EFB00268DF814608DF844
:101CC00017601A48001F30F814000490184804A93F
:101CD00050F82400FFF76CFA012D24D11348C01FDF
:101CE000015D401E005D00F025F81048801E30F8B0
:101CF000140002908DF80C6008208DF80D008DF80E
:101D00000E5002A8FFF78CF90848801F005D8DF87F
:101D100004000F208DF805008DF806008DF807509F
:101D200001A8FFF7E9FA06B070BD0000E88A0108D3
:101D30008800002010B58A07120F0F23934021F06E
:101D40000304054921440C689C430C600B689040D7
:101D500003430B6010BD0000083801400020244AF6
:101D6000116841F4803111604FF4A063116801F4EF
:101D70000031401C09B99842F8D11068800301D5A0
:101D8000012000E00020012831D1194840300168CD
:101D900041F0805101601748016841F480410160C1
:101DA0001348083001680160016841F40041016096
:101DB000016841F4A0510160011F0F4B0B601168D5
:101DC00041F08071116011688901FCD50B4A40F225
:101DD00005611160016821F003010160016841F0B3
:101DE000020101600168C1F381010229FAD1704743
:101DF000003802400070004008544007003C024098
:101E000010B506494FF080500860FEF711FA05F052
:101E100033FFBDE81040FEF710BA000004ED00E00B
:101E200010B50E48016841F0010101600B4A002124
:101E30000832116002680A4B1A400260031D094A09
:101E40001A60026822F48022026004480C300160AB
:101E5000FFF784FF05490448086010BD00380240C0
:101E6000FFFFF6FE103000240000010808ED00E03E
:101E700001F0D2BD70B5154C0121204600F054F898
:101E800000281FD00121204600F031F8104D29888C
:101E9000142918D200200F4B05F1080232F8104027
:101EA00000EE104A00EB800403EB0414B8EE400A85
:101EB00004EB810484ED000A401CC0B20328EDD37A
:101EC000491C298070BD0020288070BD000400409E
:101ED0005C010020A04B012021B1018841F080016C
:101EE00001807047018821F0800101807047C9435B
:101EF0000182704721B1018841F0010101807047E2
:101F0000018821F001010180704710B501210220F4
:101F1000FFF758FA01210220FFF760FA0021BDE81F
:101F200010400220FFF75ABA02460020138A0B40E5
:101F300092890A40002B02D0002A00D0012070476D
:101F40001AB182890A438281704782898A438281D9
:101F50007047000030B50288164C174DA0420DD0D6
:101F6000A8420BD0B0F1804F08D0144B984205D056
:101F7000134B984202D0134B984203D122F07003C6
:101F80004A881A43104B984206D0104B984203D00F
:101F900022F440730A891A4302804A68C2620A889E
:101FA0000285A04201D0A84201D1897A018601218F
:101FB000818230BD00000140000401400004004067
:101FC00000080040000C00400010004000140040D9
:101FD0000020FFF7B9BA0120FFF7B6BA40F66A123F
:101FE0000A0A01219140C9430180704721B18189CA
:101FF00041F4005181817047818921F40051818130
:102000007047000010B52949884209D101211020EC
:10201000FFF7FCF90021BDE810401020FFF7F6B9EA
:10202000234988420AD101214C042046FFF7D6F902
:102030002046BDE810400021FFF7D0B91D49884275
:102040000AD101218C042046FFF7C8F92046BDE8DB
:1020500010400021FFF7C2B9174988420AD1012177
:10206000CC042046FFF7BAF92046BDE81040002115
:10207000FFF7B4B9114988420AD101210C05204665
:10208000FFF7ACF92046BDE810400021FFF7A6B9E4
:102090000B49884209D101212020FFF7B7F900211F
:1020A000BDE810402020FFF7B1B910BD001001407D
:1020B0000044004000480040004C004000500040F8
:1020C0000014014030B5002440F66A12C1F34213F7
:1020D00001F01F0C012505FA0CF2012B0CD0022B8C
:1020E0000DD0838A1340090A8D40008828400BB127
:1020F00000B10124204630BD83891340F3E7038AF1
:102100001340F0E740F66A13C1F3421301F01F0CCD
:10211000012101FA0CF1012B07D0022B07D014305A
:102120003AB102680A43026070470C30F8E7103099
:10213000F6E702688A430260704700007FB50446F4
:102140000D46A889208A20F44051E888084320825F
:10215000A08941F20C618843A9882A8911436A89C0
:1021600002431143A181A08A20F44071A889084349
:10217000A0826846FFF756F91E48844202D01E48E6
:10218000844201D1039800E00298A189090408D58E
:1021900000EBC00101EB001029684900B0FBF1F031
:1021A00007E000EBC00101EB001029688900B0FBDB
:1021B000F1F06422B0FBF2F109010B096FF0180590
:1021C0006B4300EB8300A3891D044FF0320307D556
:1021D00003EBC000B0FBF2F000F00700084306E09C
:1021E00003EB0010B0FBF2F000F00F000843208179
:1021F0007FBD000000100140001401408088C0F342
:1022000008007047C1F308018180704770B505462A
:102210000C46284600F03AF9A0F57F41FF3905D079
:1022200005EB400244F40041A2F88C14C0B270BD2A
:1022300010B50C46194600EB411C01238CF8AE3258
:10224000CCF8B842CCF8BC229CF8C42232B10222AD
:102250008CF8B422FFF743F8002010BD00228CF860
:10226000B422F7E710B50C46194600EB411C0023D9
:102270008CF8AE32CCF8B842CCF8BC229CF8C5221F
:1022800032B102228CF8B422FFF729F8002010BDE9
:102290008CF8B432F8E730B402240C7501244C7584
:1022A0000024CC820A834C83150600EB431202D52E
:1022B00082F8C44201E082F8C542002330BC1A46CD
:1022C00000F01CB8D0F8AC2401211172D0F8AC0495
:1022D00000218172704710B50C46194600EB411C75
:1022E00001238CF8AE3202238CF8B432CCF8B84219
:1022F000CCF8BC22FEF7F3FF002010BD2DE9F04121
:102300000C4616461F466179FEF7ADFF0125E178C0
:10231000012902D0022918D107E03A463146204669
:1023200001F04AFA0220E0700FE00121012804D0F8
:10233000032805D0042806D007E0E170002504E05A
:10234000E170022501E0E17003252846BDE8F08137
:1023500010B50C46194600EB411C00238CF8AE3238
:10236000CCF8B842CCF8BC2212B901228CF8C522B4
:102370009CF8C52232B102228CF8B422FEF7AFFFDE
:10238000002010BD8CF8B432F8E710B58C46114629
:1023900000EB411303F52B7300229A704FF00302F8
:1023A0001A72C3F80CC04FF008021A61FEF797FFCB
:1023B000C0B210BD0221002200EB4103A3F88C241F
:1023C000491CC9B20829F7D30020704770B50546EB
:1023D0000C46002020706070A0700121E170217710
:1023E0004022A27184F8200084F821102179284627
:1023F00000F025F86179284600F021F8002070BD32
:10240000D0F8AC2401215172D0F8AC040021C17283
:10241000704770B504460C2505290AD0042908D058
:1024200006290BD12570D4F880000068BDE8704003
:102430000047D4F88000406C8047257070BD0829A3
:1024400008D200EB410000F28C41B0F88C04C0F3DC
:102450000E0008800020704730B4DDE9024C42F0E5
:1024600080020A7506224A75CB820322B2EB132F33
:1024700003D140F209420A8301E000220A83A1F855
:102480001AC0224630BC6346FFF738BF0146002021
:1024900001EB4002B2F88C24120405D5401CC0B2F6
:1024A0000828F5D34FF6FF7070470A8803781A445E
:1024B0000A800178084470472DE9FC410C46154616
:1024C00000F58877CDE900754FF4007300222146AE
:1024D000FFF7C2FF060009D13B4604F1500204F1A8
:1024E0003E0104F13400009500F0B7FF3046BDE82E
:1024F000FC812DE9FC410F46154600F588744FF428
:10250000807300223946CDE90045FFF7A5FF06009C
:1025100005D12A46214607F1220000F0FCFF304693
:10252000BDE8FC812DE9FC411F46089D00F588743B
:1025300042F440730022CDE90045FFF78DFF06000D
:1025400004D12A463946204601F034F83046BDE829
:10255000FC8100002DE9F05F07460C4600260020B4
:10256000A074207F0925DFF8F8914FF00B084FF099
:10257000080B4FF0050A0C280FD2DFE800F0EE063A
:102580000F3C4663768F98BBCDE0627904F114016D
:102590003846FFF7FAFE02202077DEE06179384600
:1025A000FEF761FE012802D003281FD0D5E0207D70
:1025B00000F08000618B59B141F28831A9F8001018
:1025C000802802D084F81CA009E00320207706E0D0
:1025D0003221A9F80010802806D00720207738463D
:1025E000FEF737FE2082B8E02577F8E784F81C80F4
:1025F00084F812A0B1E0A0892379C2B23846A1685C
:10260000FFF769FE04202077A7E021793846FEF71E
:102610002AFE012800D1257704280DD003280ED0EA
:102620003846FEF716FE218A401AB9F80010884293
:1026300001D984F81C8090E0607820708DE084F8E7
:102640001C808AE0607907EB401090F8C51281F099
:10265000010180F8C512A0896379C2B23846A16829
:10266000FFF776FE0620207777E061793846FEF79F
:10267000FAFD012806D0042807D0022808D0032834
:1026800009D06AE00720207767E06078207064E076
:1026900084F81CA061E084F81C805EE000222379AD
:1026A00011463846FFF717FE84F81CB055E0217933
:1026B0003846FEF7D8FD0546012D0DD0032D0ED06E
:1026C0003846FEF7C6FD218A401AB9F80010884244
:1026D00008D984F81C8040E0607820703DE084F8E0
:1026E0001C803AE0042D38D1607820700420A0745A
:1026F000032632E0607907EB401090F8C51281F0B4
:10270000010180F8C5120022637911463846FFF7AF
:102710001FFE0A20207720E061793846FEF7A3FDEE
:10272000012804D0022805D0032805D015E06078E0
:10273000207012E0257710E084F81C800DE0A07B6B
:10274000401CC0B2A073022802D80120207704E008
:1027500084F812B06078207002263046BDE8F09F01
:10276000D80000202DE9F04192B006460C46012524
:10277000A1780027FF20A8460A2927D2DFE801F028
:1027800005273759637790A9C2CC082221463046E5
:10279000FFF7AFFE002819D194F82900A071304648
:1027A000FEF798FD84F80280A0790023CDE900703F
:1027B00061791A46304600F0B7FDA0790023CDE9D3
:1027C000007021791A46304600F0AEFDA5E01222D5
:1027D00021463046FFF78DFE0028F7D1D4F880005F
:1027E000C16904F1220088470220A07095E001220F
:1027F0002146304600F0C8FF002819D104F1040436
:1028000084F81C80E06F006A8047032004F8020C03
:1028100000970197227F21780023304600F084FD45
:1028200000970197227F61780023304600F07CFDFD
:1028300073E0092221463046FFF73EFE00286CD1A6
:102840000420A07069E0E28E21463046FFF734FE96
:10285000002862D1D4F8800004F1500204F13E0156
:10286000436A04F1340098470520A07055E094F8BD
:10287000302006276AB1009002AB21463046FFF7B0
:1028800051FE28BBD4F88000816A02A88847A7704F
:1028900043E0D4F88000816A22A08847A7703CE01A
:1028A00094F8312007276AB1009002AB21463046E8
:1028B000FFF738FE60B9D4F88000C16A02A88847E3
:1028C000A7702AE0D4F88000C16A16A08847A770D4
:1028D00023E094F8322008276AB1009002AB214629
:1028E0003046FFF71FFEC0B9D4F88000016B02A884
:1028F0008847A77011E0D4F88000016B09A08847D1
:10290000A7700AE094F839202146304600F048FFCD
:1029100018B90920A07000E0002512B02846BDE8D3
:10292000F08100004E2F41002DE9F04105462DEDCC
:10293000028B0F469DED088A14461E46284601F07C
:102940000FF8002000F0C2FF21462846FFF73EFDA9
:10295000E66784ED208A0C4905F2AC40C5F8AC145A
:1029600000220A720068427239462846FEF784FC4B
:10297000D4F8800000688047BDEC028B2846BDE893
:10298000F04100F0CDBF0000DC00002021220A75DC
:10299000FF224A750022CA820A834A8300231A460C
:1029A000FFF7ACBC10B5844601200C4C12B1012AD3
:1029B0000BD105E02378E2786046FFF76CFC04E079
:1029C0006378A2786046FFF766FC054AD168491C27
:1029D000D160042900D9042010BD0000E82D00209A
:1029E000B00000200149002008707047D82D002059
:1029F00070B5054601242846FEF769FCF8B1124877
:102A000001782846FEF733FC0D2801D0022416E099
:102A10000E480F4A0168914210D1A0F1200241688E
:102A2000526891420BD1007B20B1012807D00228C7
:102A300002D004E0002402E0022400E00224034863
:102A40001030C473204670BDE82D0020C82D002032
:102A5000555342530A490A22012803D0022800D1C3
:102A60000A707047074B1878401CC0B218700A28CB
:102A700004D2062008700120C87070470A707047A1
:102A8000D82D0020C0000020A1220A75FE224A7520
:102A90000022CA820A8301224A830123014AFFF7E6
:102AA0002DBC0000F02D00202DE9F35F0D46012420
:102AB0000098FEF70CFC002818D04D4EDFF834913A
:102AC0004D4F3078A2464FF000084FF0080B0B280E
:102AD0000CD2DFE800F0060C1A44515E6B767B37AF
:102AE0008900009800F0A0F986F800A07DE0294652
:102AF0000098FFF74BFF0446022004B93070032C06
:102B000073D17070092030706FE029460098FFF78C
:102B1000BBFF044603213CB999F8080089F8480036
:102B200008B1787818B13170032C07D05DE087F8D0
:102B300001A0D5F88000006C804756E07170092034
:102B4000307052E06B79002229460098FFF7A3FB12
:102B5000044624BB89F848807078307045E00098BE
:102B600000F050FB10B1FFF775FF3EE0042030701D
:102B700087F80080002438E0009800F0A3FA10B134
:102B8000FFF768FF31E00520307087F800800024EF
:102B90002BE0009800F0D2F910B1FFF75BFF24E0C2
:102BA00086F800B087F8008000241EE0009800F04E
:102BB000D9FA10B1FFF74EFF17E07078307000249B
:102BC00013E02946009800F019F80EE0D5F88000CF
:102BD000C06B8047C0B210B1012803D005E086F871
:102BE00000B002E0062400E004242046BDE8FC9F7B
:102BF000D82D0020E82D0020C00000202DE9F35F33
:102C00000098FEF764FB002821D0844C05278448F7
:102C10002179844D00264FF008094FF0070B4FF043
:102C200002084FF0010A092911D2DFE801F010056E
:102C3000123B6CA8BED4E800784943781F22303993
:102C40000098FFF70FFB84F805A084F80480BDE826
:102C5000FC9F41780098FEF706FB012808D0022867
:102C60001DD00428F3D185F800A084F80490EEE785
:102C7000EE6084F8058069483038017B01F08001FE
:102C8000806850B16860A068A860802902D00420E4
:102C90002071DCE703202071D9E72771D7E760793D
:102CA0002071D4E7804601780098FEF7DCFA01280D
:102CB00002D0617903291FD0EE600320607168683B
:102CC00040280DD998F800304022A9680098FFF7F5
:102CD000AFFA686840386860A8684030A860B6E716
:102CE00040B182B298F80030A9680098FFF7A0FAC6
:102CF0006E60ACE72771AAE70428A8D12E7084F88B
:102D000004B06771A3E7804641780098FEF7ABFAFC
:102D1000012809D0022827D0042898D185F800A0DE
:102D200084F80490677192E7EE600420607168682F
:102D300040280DD998F801304022A9680098FFF783
:102D400091FAA8684030A8606868403868607EE7FB
:102D500040B182B298F80130A9680098FFF782FA72
:102D60006E6074E7277172E7A96898F801300098DF
:102D700002B04022BDE8F05F4039FFF773BA6771D7
:102D800026491039A1603F22A2810D220D46AE5482
:102D9000521ED2B2002AFAD12E7003783F22009838
:102DA000FFF746FA0620207151E701780098FEF7F8
:102DB0005AFA012805D0042891D12E7084F804B065
:102DC00045E7EE606771A0782070DDE90001FFF74C
:102DD0000FFEE0733BE7DDE900010022FFF7E2FDB3
:102DE00020B1042885D184F80F8030E728780228A4
:102DF00002D0607920712AE784F8049027E7DDE9A2
:102E000000010122FFF7CEFD20B104288BD184F808
:102E10000F801CE76079207119E70000D82D002091
:102E2000E82D0020B000002010B5FEF750FA002178
:102E300048B10848064A0260074A42604173054AA1
:102E400001203032D0700548C1600548017010BDC6
:102E500055534243A82D002050403020B0000020A0
:102E6000C000002070B504460B4D0026697839B1CA
:102E7000204600F0BBFF69782046FFF7E0FA6E704D
:102E80002978002907D0204600F0B0FF2978204695
:102E9000FFF7D5FA2E7070BDE82D00202DE9FC411A
:102EA00005460C4694F84300082803D194F84500E1
:102EB000502806D0D4F88000006C80470020BDE880
:102EC000FC8194F852001C4E010604D5F070B4F851
:102ED0005400B08003E0B070B4F85400F08094F86F
:102EE0005A00010604D5F070B4F85C00B08003E02D
:102EF000B070B4F85C00F080B1782846FFF786F92E
:102F00007070F1782846FFF781F93070F088022759
:102F1000CDE9007004F120047178637822782846A6
:102F200000F072FAB088CDE90070637822783178C9
:102F3000284600F069FAC1E7E82D002070B50324A7
:102F4000FEF7C5F930B3214E214B0022F078012560
:102F5000012802D0022836D11DE01E493F248C6092
:102F6000802008730A208873B3600520B070102099
:102F70000B18DA73401EC0B20028F9D11A20C873AA
:102F80004C74CC743571072030700320F07302202C
:102F9000F070032417E0F07B20B101280ED0022846
:102FA0000FD010E0987801060948A0F1100001D573
:102FB000057300E00273F570002404E0F57001244D
:102FC00001E0F5700224204670BD0000D82D0020DD
:102FD000A82B0020A82D00202DE9FF4F81B0064628
:102FE0000D461C46344F4FF0030987F800903046D9
:102FF000FEF76DF9D8B3314A4FF001084FF0020BDC
:10300000D0784FF0000A012802D002284FD12FE0DB
:103010002B498C60802008730A20887395601020EB
:103020000B1883F80FA0401EC0B20028F8D128204A
:10303000C8739DF80F0048749DF80E0088749DF8C1
:103040000D00C8749DF80C000875600A00909DF88A
:10305000010088759DF80000C87582F8048007207B
:10306000107082F80F9082F803B087F800901EE08D
:10307000D07B914640B93046FEF729F920B189F856
:10308000038087F800A012E099F80F00012806D10C
:103090003046FEF71CF910B189F8038007E099F873
:1030A0000F00022803D189F8038087F800B0387830
:1030B00005B0BDE8F08F0000AC000020D82D002046
:1030C000A82D002070B50324FEF701F920B3224E8D
:1030D00001252248F178012902D002293AD11CE0C9
:1030E0001F4908228A6080220A730A228A73B0600C
:1030F0000420B070102000220B18DA73401EC0B2FA
:103100000028F9D12520C8733571072030700320BD
:10311000F0730220F07003241CE0F17B21B101293F
:1031200013D0022914D015E00C4902781039CA7066
:1031300042788A7082784A70C2780A7082794A72BC
:10314000C0790872F570002404E0F570012401E0F4
:10315000F5700224204670BDD82D0020A82B002039
:10316000A82D002070B50324FEF7B1F838B3224E25
:103170000125224AF078012802D0022839D11FE027
:103180001F493F248C60802008730A208873B26036
:10319000B07870700620B070102000220B18DA731F
:1031A000401EC0B20028F9D10320C8730A74CC7441
:1031B000357107213170F0730220F070032418E09C
:1031C000F07B20B101280FD0022810D011E00B486D
:1031D00011781038C1715178817191784171D1782D
:1031E0000171F570002404E0F570012401E0F57030
:1031F0000224204670BD0000D82D0020A82B0020FE
:10320000A82D002070B50324FEF761F810B31A4E04
:103210000125F078012802D002282BD11BE01749A4
:1032200000228A600A73062088731548B0603F2028
:10323000B0810324B47010200B18DA73401EC0B2A2
:103240000028F9D1CA73357107203070F473022059
:10325000F07003240EE0F07B20B1012805D0022895
:1032600006D007E0F570002404E0F570012401E0C9
:10327000F5700224204670BDD82D0020A82D002016
:10328000C82D0020FFB581B00E461D460324FEF771
:103290001EF898B3224F0123F878012802D00228A3
:1032A0003BD12CE01F498D6000220A730A208873ED
:1032B000BE6010200C18E273401EC0B20028F9D185
:1032C0002A20C8739DF80F0048749DF80E0088747A
:1032D0009DF80D00C8749DF80C000875680A0090F0
:1032E0009DF8010088759DF80000C8753B710720A6
:1032F00038700320F8730220F87003240DE0F87B87
:1033000020B1012805D0022805D006E0FB7000247A
:1033100003E0FB7001E0FB70022405B02046F0BD25
:10332000D82D0020A82D002010B5DDF80CC000EB32
:1033300041140AB184F8AC22B4F8B222624504D038
:10334000BCF1000F01D0A4F8B2C294F8AF229A42A7
:1033500002D00BB184F8AF3200F076FD002010BD32
:1033600038B50546002400200090284600F0A7FE4E
:10337000002847D0284600F0A9FE0090009808B920
:10338000002038BD0098C0F3C00018B1284601F0F5
:10339000E3FD04430098C0F3001018B1284601F083
:1033A0003CFD04430098C0F3401018B1284601F0DA
:1033B0007FFB04430098C0F3806018B1284601F0F9
:1033C00097FC04430098C0F3406018B1284600F011
:1033D0006CFF04430098C0F3006018B1284601F068
:1033E000FBFB04430098C0F3407018B1284600F07E
:1033F00022FF04430098C0F3405018B1284600F063
:1034000031FF04432046BCE72DE9F041DDE9066CBD
:1034100000EB410404F28C45B4F88C4404F07F07BF
:1034200000EB411404F52B7467702D88C5F3C015AB
:10343000A57022706671A4F806C0E3704FF0000218
:1034400022766276A4F52B7413B9012284F8B02297
:1034500000F0FAFC0020BDE8F0812DE9F84F8A4623
:103460000A99064691461C46187830705878707054
:103470009878DA7800EB02207080187930715A79E8
:1034800072719A79B271DA79F2711A7A3272092903
:1034900015D909210091022811D800270CE06946AE
:1034A0002046FFF702F804466078042809D0207807
:1034B000BDF80010084400903079B842EFDCBDE858
:1034C000F88F07EBC70000EB0A082146404600F0E2
:1034D0005EF8002598F8040002280DD910E069462E
:1034E0002046FEF7E2FF0446607805280BD02078DE
:1034F000BDF800100844009098F80400A842EEDCE3
:103500007F1C7FB2D8E709EBC500214600F02FF8F9
:103510006D1C6DB2F0E710B50B7803704B784370FB
:103520008B78CC7803EB042343800B7903714B79C0
:1035300043718B798371CB79C371082A16D90A7AC2
:103540004B7A02EB032202818A7ACB7A02EB0322C6
:1035500042810A7B4B7B02EB032282818A7B82734E
:10356000CA7BC2730A7C0274497C417410BD0A781C
:1035700002704A7842708A788270CA78C2700A797A
:103580004B7902EB032282808979817170470A7836
:1035900002704A7842708A788270CA78C2700A795A
:1035A00002714A7942718A798271CA79C271097A43
:1035B0000172704710B54378032B11D103789C1E1C
:1035C000944200DC9A1E93B2801C002204E0845CCA
:1035D00001F8014B921C92B29A42F8D30020087075
:1035E00010BD2DE9FC4705460C464FF00108207838
:1035F0004FF0000904F1200705F2AC460D280FD268
:10360000DFE800F00F071A9E9E9E5974828C659E1B
:1036100091002846FDF75EFE002801D184F8009055
:103620008EE02846FDF753FE002804D02846FEF71A
:10363000C1FE0220207083E0D4F8800080688047BB
:10364000D5F8AC0480F80990306880F80A80002131
:103650002846FEF7DBFD607180212846FEF7D6FD87
:1036600020712846FDF736FE002869D104F10404D4
:10367000E06FC06880472846FDF7EFFDC0B2607775
:10368000062104F8041CE16F89698847A078CDE918
:103690000090637F227F21782846FFF7B5FEA0784F
:1036A000CDE90090637F227F6178A4F1040428466D
:1036B000FFF7AAFE44E021462846FFF753F8F8B981
:1036C000D4F88000406B80470A20207038E0D4F89E
:1036D0008000806B8047012832D1E06F214602686C
:1036E0002846904760B90720207029E0E06F214606
:1036F000826828469047014619B12046FEF789FEA8
:103700001EE0082020701BE0E06F2146C2682846BA
:10371000904701462046FEF77CFE11E021462846F0
:10372000FEF718FF0CE021462846FEF74FFED4F8BE
:10373000800040688047E06F3946426828469047DD
:103740002846FDF7C4FD00281CD1D5F8AC04C07A8A
:10375000002817D1D4F8800000698047D5F8AC0460
:1037600080F80B8021462846FEF730FED4F8800012
:1037700040688047E06F3946426802B02846BDE89D
:10378000F0471047BDE8FC8730B400230B750524D3
:103790004C75CA820B834B8330BC1A46FEF7AEBD14
:1037A00030B400230B7509244C75CA820B834B83FC
:1037B00030BC1A46FEF7A2BD03784370092303709C
:1037C00081608281012101770020704770470000ED
:1037D000014900200870704764000020704770475E
:1037E0000220FEF741BAFDF7DCFC012803D00228D5
:1037F00001D0FDF7D6FC70477047704710B51948E7
:10380000417889B9012141700120FEF709FA0020B1
:10381000FEF706FA0220FEF703FA0320FEF700FA8D
:1038200000210846FEF73AFA0F484FF47A71006813
:10383000B0FBF1F0B0F1807F01D301200DE020F06A
:103840007F414FF0E020491E4161084AF02111708C
:1038500000218161072101610020002800D0FEE7DE
:1038600010BD0000640000200400002023ED00E0F3
:1038700010B50E4C207810B1012815D112E00C497A
:10388000002002F029FE08B1FDF78BFC0948007BFF
:10389000012802D00120207006E00320FEF7E4F9A1
:1038A000FDF77FFC04F024FD002010BD6400002023
:1038B000D4010020982B0020704770477047704754
:1038C0007047FDF76EFC0120704700001CB5012118
:1038D0000420FDF75FFD0120009003218DF8051005
:1038E0008DF8040000208DF806008DF80700064CC6
:1038F00069462046FDF75CFC01212046FDF7A7FC48
:10390000C82000F0A5F81CBD00080240034811B112
:103910000121FDF79ABC0121FDF799BC0008024086
:1039200038B54FF4C060FDF71FFD43208DF800004F
:1039300001248DF801408DF802408DF8034068465F
:10394000FDF7DAFC17208DF800008DF80140022009
:103950008DF802008DF803406846FDF7CDFC38BDB8
:103960007CB501210846FDF715FD4FF4D0500090BD
:1039700003248DF8054002208DF8040000208DF806
:1039800006008DF80700184D69462846FDF710FC23
:103990000A2209212846FDF748FC0A220B21284665
:1039A000FDF743FC0A220C212846FDF73EFC2915B1
:1039B000009101218DF806108DF807108DF8054053
:1039C00069462846FDF7F4FB0A2211462846FDF712
:1039D0002CFC01218803FDF70DFD01218020FDF75E
:1039E000E5FC00F003F87CBD0000024008B51C2097
:1039F0008DF8000005208DF8010000208DF80200F0
:103A000001208DF803006846FDF776FC0121084689
:103A1000FDF7D8FC08BD000010B501218C07204639
:103A2000FEF782FA002809D001212046FEF75FFA4E
:103A300006490A681AB10868401E086010BD204691
:103A4000BDE810400021FEF755BA00001800002024
:103A50000121FDF751B80221FDF74EB87FB50446AC
:103A600000260020039002900090217AE06801294E
:103A70000ED0C16841F040010391C160204600F0C2
:103A8000C9F84FF480300290207A032828D02AE029
:103A9000816B21F480310291627A12B141F480117C
:103AA000029102998163E068C16821F0400121F42C
:103AB000800141F0100121F0080121F0800121F482
:103AC000003121F400210391C160204600F0A2F8EA
:103AD000E078012842D12A200090E16888603DE02A
:103AE0004FF440300290029840F4802040F40020CF
:103AF00040F400100290617A11B140F480100290FD
:103B0000E168029888631420FFF7A2FFE068C168AB
:103B10000391227A032A02D141F48031039103995F
:103B2000C160207A032819D1E068016B21F040615F
:103B300001F1806121F4000141F0805121F4FE0582
:103B400005F534150563C820FFF782FF45F4000032
:103B50000190E1680863C820FFF77AFFE078012848
:103B600008D1E068816821F01E010A3141F020018E
:103B70000091816004B0304670BDFEB50446002659
:103B800000250027029701972046FFF79FFED4F8F3
:103B90000C0107600121204600F085FA6169086880
:103BA00020F0040000900860E07A012813D1E16859
:103BB00080204862ADF808006020ADF80A00E26895
:103BC00002999162E021ADF80410ADF80600E168B9
:103BD0000198C1F800011021204600F0CBF82046E2
:103BE00000F0AAF84FF0FF3107E004EB850050F831
:103BF000902F91600068C7606D1C2078A842F4D8AF
:103C00000121204600F03CF8204600F071F83046D3
:103C1000FEBD0000F8B505460026002400200090F7
:103C2000124F0320FFF717FFE86800690090641C3B
:103C3000BC4201D90020F8BD00980028F1DA00202C
:103C4000009941F0010100910099EA681161E96869
:103C50000A690092401CB84202D8009AD207F7D1F4
:103C60000320FFF7F8FE3046F8BD0000400D0300CA
:103C70000022C068816821F0010181601046704710
:103C800038B505460C4621462846FFF73FFE284634
:103C900000F021FA0090C10407D4012C05D140F4B2
:103CA00080500090D5F8CC1008600098C10406D56B
:103CB0002CB920F480500090D5F8CC100860BDE8F5
:103CC0003840C820FFF7C4BEC2684FF0FF315160D2
:103CD000C26851610149C068816170470008008075
:103CE0000022C068816841F0010181601046704780
:103CF00038B50446002500200090E1688861E1683D
:103D0000401E48612046FFF7DFFFE07808B9102029
:103D10000090009840F0807040F0007040F000503B
:103D200040F0080040F40010E1688A6982430243D1
:103D30008A61284638BD000038B5014600240020BD
:103D400000220092009A42F010020092009ACB6882
:103D50001A61074AC9680B690093401C904202D857
:103D6000009BDB06F7D40320FFF775FE204638BD25
:103D7000400D030038B503460024002000220092C5
:103D8000009A42F020020092009A61F38A12009297
:103D90000099DA681161074AD9680B690093401CE1
:103DA000904202D8009B9B06F7D40320FFF753FEF6
:103DB000204638BD400D0300C068406900F0010096
:103DC000704710B500234FF00042012464F3DC4239
:103DD00000EB810050F8901F0A610068016841F013
:103DE000004121F080410160184610BD1EB500233E
:103DF00000220292019200EB8101D1F8902011681B
:103E000041F0004141F08041009111F4402F0AD06F
:103E1000C1F38144022C06D040690069019010F47E
:103E20007F0F0AD00CE0C068C06A029010F47F0FC8
:103E300006D121F00040009002E021F00040009007
:103E40000098106018461EBD7FB50025AC46CDF821
:103E500008C0CDF80CC0CDF804C06A1E009200EB7B
:103E60008104D4F890309A60C278012A01D10422EA
:103E7000039200EB411292F8B13233B1012B36D0EC
:103E8000022B02D0032B42D11CE0039B43F0010321
:103E900043F0080343F0800343F4806343F01003CE
:103EA000039392F8AE621EB143F4807303932EE045
:103EB00043F04003039392F8B06246B343F020030B
:103EC000039324E0039B43F0010343F0100343F00A
:103ED000080343F0800343F4806343F400730393C7
:103EE00092F8AE629EB143F4807303930FE0039B9C
:103EF00043F0010343F4007343F02003039392F86B
:103F0000AE6226B143F0800343F480730393D4F888
:103F10009060039BF36001238B4041698E691E43CF
:103F20008E614FF000710291C068816941F00071AB
:103F3000816192F8AC0260F39C5C92F8AD0260F390
:103F4000CE2C92F8AE0260F3CF3CCDF804C092F8CC
:103F5000AF0202280DD02CF4003092F8B11261F3B8
:103F60009340B2F8B22262F30A000190032903D011
:103F700005E04CF40030F0E740F000500190D4F838
:103F800090100198086004B0284670BDF0B585B067
:103F9000054600264FF4807C002203920492009292
:103FA00005EB4114D4F8BC726FB1B4F8B232F81812
:103FB000401EB0FBF3F080B2604505D960461B029D
:103FC000C4F8BC3200E0012094F8AE3223B1B4F85A
:103FD000B2324343C4F8BC32D4F8BC3263F31202A9
:103FE00060F3DC4294F8B40260F35E72039205EB76
:103FF0008103D3F890000261E878012804D1D3F856
:104000009020D4F8B802506153F8900F0268284607
:1040100000F04FF860F35D7242F0004020F0804005
:1040200004901A681060E878D0BB94F8AE02B8BB70
:10403000D4F8BC32A3B394F8B10230B1012814D043
:10404000022802D0032821D10FE0E868C26A029258
:10405000DB1CC3F38F0392B29A4217D22022009244
:10406000826942F02002826110E068690069019073
:10407000DB1CC3F38F0280B2904207D24FF0806006
:104080000090E868826942F080628261D4F8BC02E4
:104090000A4683B2D4F8B8020146284600F06AFF07
:1040A00005B03046F0BD4069026861F3010202606C
:1040B00070474069806840F30000401C704700B5BD
:1040C000FFF77AFE012800D0002000BDC0684169DA
:1040D000806908407047D0F8CC00006820F00400E8
:1040E00020F0020020F0080020F020007047406916
:1040F0004069704710B5044608460021D21C930859
:10410000D4F8D02003E014680460491C001D9942D3
:10411000F9D310BD70B505462846FFF7DCFF40F423
:10412000807455F8CC0F04600A20FFF791FC24F44A
:104130008070296808601420FFF78AFC012070BD98
:1041400030B5002294460024C470012383704025BA
:104150008580012901D061B114E04FF0A042C37203
:1041600008210170042141709115C1800221017262
:1041700008E0224AC4720C210170062141704FF4FC
:10418000A061C180C26002F50061016100210AE006
:1041900002EB411300EB810403F51065A56103F503
:1041A00030636365491C43788B42F1D802F5806126
:1041B00041614031C0F8CC10002108E002EB41130E
:1041C00000EB810403F5A063C4F89030491C037828
:1041D0008B42F3D8002108E002EB013300EB8104AD
:1041E00003F58053C4F8D030491C03788B42F3D8D0
:1041F00002F56062C0F80C21604630BD000004404A
:1042000038B50024C268D06820F0005020F080400B
:104210000090012901D021B106E040F0005000904B
:1042200002E040F0804000900098D0603220FFF71C
:104230000FFC204638BD38B504460021C4F81012E2
:1042400000200090D4F8AC0401682046884700980C
:1042500020F0005000F1005000900098E1684861A3
:10426000012038BD0CB50146D1F8900000680090DF
:10427000009820F0004000F100400090009820F0ED
:10428000804000F180400090009AD1F890000260D8
:1042900000200190019820F4001000F5001001901A
:1042A0000198CA68506101200CBD7CB50546002408
:1042B00000262846FFF71BFF019000BF1BE0019876
:1042C00080B20121A140084214D005F1900050F8BD
:1042D0002400006800900098C0F3C03028B1214647
:1042E000284600F00DF8064304E02146284600F079
:1042F0001BFA0643641C2878A042E0D830467CBDF7
:1043000070B586B005460C4605F1900050F8246063
:10431000B0680590F0680490DDE90410084005904D
:1043200005F1900050F824000068039000200490EC
:104330000598C0F38000D0B100200190019820F0D2
:104340000400001D01900198B06005F1900050F844
:104350002400C0680190019820F00200801C0190A8
:1043600005F1900050F824000199C16073E00598B0
:10437000C0F3401048B100200190019820F02000C7
:10438000203001900198B06065E00598C0F3C0004E
:1043900078B305F1900050F82400C06801900198AE
:1043A00020F00200801C019005F1900050F82400DC
:1043B0000199C160052105F5237001550020019088
:1043C000019820F01000103001900198B06000209A
:1043D0000190019820F00800083001900198B06029
:1043E000059820F010000590E1B22846FFF7FEFC8A
:1043F00031E0FFE70598C0F3802060B305F190003D
:1044000050F82400C0680190019820F00200801C40
:10441000019005F1900050F824000199C160E1B2CB
:104420002846FFF7E3FC00200190019820F01000DF
:10443000103001900198B060082105F523700155F6
:1044400000200190019820F4806000F580600190C8
:104450000198B06000BF0598C0F34020F8B105F1A5
:10446000900050F82400C0680190019820F00200EC
:10447000801C019005F1900050F824000199C16062
:10448000E1B22846FFF7B2FC00200190019820F429
:10449000007000F5007001900198B06041E105984E
:1044A000C0F30000002871D0E878012812D105F18E
:1044B000900050F824000069029005F52B7000EB85
:1044C000441000690299C1F31201411A05F51470F4
:1044D00040F82410012105F523700155002178389A
:1044E00040F8241000200190019820F00100401CA9
:1044F00001900198B0600398C0F3814020B1039807
:10450000C0F3814002282AD105F1900050F8240020
:10451000C0680190019820F00200801C019005F114
:10452000900050F824000199C160E1B22846FFF7DD
:104530005DFC00200190019820F0100010300190E7
:104540000198B06005F52B7000EB4410007E80F000
:10455000010105F52B7000EB44100176E1E00398B2
:10456000C0F38140032899D1039820F0005000F156
:104570000050039005F1900050F824000399016069
:10458000012105F29B200155CBE0FFE70598C0F320
:104590004000002851D005F1900050F82400C06878
:1045A0000190019820F00200019005F1900050F870
:1045B00024000199C16005F52370005D012804D134
:1045C000012105F29B2001552DE005F52370005DCA
:1045D000052804D1042105F29B20015523E005F5AF
:1045E0002370005D062804D005F52370005D0828BF
:1045F00008D1002105F5057040F82410032187300B
:10460000015510E00398C0F3814003280BD105F554
:104610002B7000EB4410007E80F0010105F52B703B
:1046200000EB4410017600200190019820F0020078
:10463000801C01900198B06073E00598C0F3C01031
:1046400040B305F1900050F82400C0680190019833
:1046500020F00200801C019005F1900050F8240029
:104660000199C16005F5057050F82410491C40F807
:104670002410062178300155E1B22846FFF7B6FB39
:1046800000200190019820F0800080300190019876
:10469000B06046E00598C0F30010E8B30398C0F39B
:1046A000814003281ED105F1900050F82400C06815
:1046B0000190019820F00200801C019005F190000B
:1046C00050F824000199C160E1B22846FFF78EFB43
:1046D00000200190019820F0100010300190019806
:1046E000B06018E00398C0F3814020B10398C0F394
:1046F000814002280FD1039820F0004000F10040D3
:104700000390039820F08040039005F1900050F84A
:1047100024000399016000E003E0032105F5237004
:104720000155012006B070BD7FB505460C4605F168
:10473000900050F82460B0680390F0680290DDE9C2
:1047400002100840039005F1900050F82400006822
:1047500001900398C0F38000D0B100200090009831
:1047600020F00400001D00900098B06005F190005A
:1047700050F82400C0680090009820F00200801CCF
:10478000009005F1900050F824000099C1608CE180
:104790000398C0F3401048B100200090009820F02A
:1047A0002000203000900098B0607EE10398C0F3B4
:1047B000000038B3002105F5057040F8241005F11C
:1047C000900050F82400C0680090009820F002008B
:1047D000801C009005F1900050F824000099C16001
:1047E000E1B22846FFF702FB00200090009820F07D
:1047F0000100401C00900098B060012105F5237075
:10480000015552E10398C0F3C00010B3002000909E
:10481000009820F00800083000900098B06005F182
:10482000900050F82400C0680090009820F002002A
:10483000801C009005F1900050F824000099C160A0
:10484000E1B22846FFF7D2FA052105F5237001559C
:104850002BE10398C0F3001038B3002105F5057073
:1048600040F8241005F1900050F82400C068009032
:10487000009820F00200801C009005F1900050F894
:1048800024000099C160E1B22846FFF7AFFA00208A
:104890000090009820F01000103000900098B06058
:1048A000032105F523700155FFE00398C0F3C01004
:1048B00040B305F1900050F82400C06800900098C3
:1048C00020F00200801C009005F1900050F82400B8
:1048D0000099C160E1B22846FFF788FA05F5057036
:1048E00050F82410491C40F8241006217830015556
:1048F00000200090009820F0800080300090009808
:10490000B060D2E00398C0F3801038B3002105F501
:10491000057040F8241005F1900050F82400C0689C
:104920000090009820F00200801C009005F190009B
:1049300050F824000099C160E1B22846FFF756FA0A
:1049400000200090009820F0400040300090009837
:10495000B060042105F523700155A6E00398C0F36B
:10496000802060B305F1900050F82400C0680090EA
:10497000009820F00200801C009005F1900050F893
:1049800024000099C160E1B22846FFF72FFA002009
:104990000090009820F01000103000900098B06057
:1049A000082105F52370015500200090009820F49F
:1049B000806000F5806000900098B06075E003981A
:1049C000C0F34000002870D005F1900050F824009A
:1049D000C0680090009820F00200009005F190005F
:1049E00050F824000099C16005F52370005D01288E
:1049F00015D1012105F29B2001550198C0F381409A
:104A0000022848D105F52B7000EB4410407E80F061
:104A1000010105F52B7000EB441041763BE005F5F4
:104A20002370005D032804D1022105F29B2001556B
:104A300031E005F52370005D04280FD105F52B70DA
:104A400000EB44100079012803D1E1B22846FFF7BA
:104A5000B8F9022105F29B2001551CE005F52370F1
:104A6000005D052804D1042105F29B20015512E0C8
:104A700005F52370005D06280DD105F5057050F889
:104A80002400032807D1032105F29B2001550021B2
:104A9000873840F8241000200090009820F0020091
:104AA000801C00900098B06000BF012004B070BD71
:104AB0007CB50446E068C06A00900098C0F341717C
:104AC00004F52B7000EB41100069C01CC0F38F0689
:104AD00071E000988004050C0098C0F3417104F562
:104AE0002B7000EB41100069A84215D20098C0F36A
:104AF000417104F52B7000EB4110006985B2002074
:104B00000190019820F0200020300190E068806939
:104B100001998843E16888610098C0F3417104F508
:104B20002B7000EB41100069C01CC0F38F06009889
:104B3000C0F34172C0F3417304F52B7000EB4310D6
:104B40002B46C168204600F015FA0098C0F3417169
:104B500004F52B7000EB4110C06841190098C0F3B8
:104B6000417204F52B7000EB4210C1600098C0F355
:104B7000417104F52B7000EB41100069411B009856
:104B8000C0F3417204F52B7000EB421001610098F4
:104B9000C0F3417104F52B7000EB411040694119DD
:104BA0000098C0F3417204F52B7000EB4210416194
:104BB000E068C06A0090009880B2B0420ADD0098B8
:104BC000C0F3417104F52B7000EB4110006900281F
:104BD0007FF47FAF01207CBDFEB504460026002592
:104BE0000020009002900190D4F8CC000068029060
:104BF000D4F8CC0000680190019820F004000190E6
:104C0000019820F002000190019820F00800019026
:104C1000019820F0200001900298C0F3400060B19C
:104C2000D4F8AC04416820468847019820F002007F
:104C3000801C0190012645F001050298C0F3C000D8
:104C4000002840D0019820F0080008300190029818
:104C5000C0F38000012836D10121C4F81012029857
:104C6000C0F34140022804D00298C0F3414001281B
:104C700028D16069006800900298C0F34140022882
:104C800011D141F27071606941600098C0F3010078
:104C9000022818D0E07A012803D102212046FFF72C
:104CA00002FA01260FE04BF68031606941600098FE
:104CB000C0F30100012806D001212046FFF7F3F9D7
:104CC000012600E001260298C0F3401030B101989F
:104CD00020F020002030019045F0010516B120465B
:104CE000FFF718FA0199D4F8CC0001602846FEBD00
:104CF0007CB504466069006900900098C0F341717A
:104D000004F52B7000EB41100069C01CC0F38F0646
:104D100072E000988004050C0098C0F3417104F51E
:104D20002B7000EB41100069A84216D20098C0F326
:104D3000417104F52B7000EB4110006985B2002031
:104D40000190019820F0806000F180600190E0689F
:104D5000806901998843E16888610098C0F34171D6
:104D600004F52B7000EB41100069C01CC0F38F06E6
:104D70000098C0F34172C0F3417304F52B7000EB4F
:104D800043102B46C168204600F0F4F80098C0F3A9
:104D9000417104F52B7000EB4110C0684119009877
:104DA000C0F3417204F52B7000EB4210C160009813
:104DB000C0F3417104F52B7000EB41100069411BF9
:104DC0000098C0F3417204F52B7000EB42100161B2
:104DD0000098C0F3417104F52B7000EB411040695D
:104DE00041190098C0F3417204F52B7000EB42109A
:104DF0004161606900690090009880B2B0420ADDAC
:104E00000098C0F3417104F52B7000EB411000696C
:104E100000287FF47EAF01207CBD7FB504460025CD
:104E200000200290029820F0100010300290E068FC
:104E3000806902998843E1688861E068006A0390AC
:104E40000398C0F3030504F1900050F825000068B2
:104E500000900398C0F34340022806D0032869D08D
:104E6000052868D0072864D166E00398C0F30A10CB
:104E700000285DDD04F52B7000EB4510C0680028AC
:104E800056D00398C0F30A1204F52B7000EB4510BE
:104E9000C1682046FFF72EF90398C0F3030104F51B
:104EA0002B7000EB4110C0680399C1F30A11014453
:104EB0000398C0F3030204F52B7000EB4210C160AD
:104EC0000398C0F3030104F52B7000EB4110406917
:104ED0000399C1F30A1101440398C0F3030204F5D6
:104EE0002B7000EB4210416104F52B7000EB451074
:104EF000466904F5147040F8256004F1900050F8FC
:104F00002500006901900198C0F3C94000280FDD19
:104F1000009820F0004000F100400090009820F040
:104F20008040009004F1900050F825000099016045
:104F300003E000BF00BF00BF00BF00BF029820F029
:104F4000100010300290E068806902990843E1681F
:104F50008861012004B070BD08B5014600200090B2
:104F6000009820F00800083000900098CA6850614E
:104F7000012008BD30B505460020EC78002C0CD18E
:104F8000DB1C9B0805EB8202D2F8D02003E00D6801
:104F90001560641C091D9C42F9D330BDFEE700007A
:104FA0000FB4024610B504A9034B039800F0D6F8DD
:104FB00010BC5DF814FB00001D6E01080FB4084B17
:104FC00010B504A902AA039800F0C8F8044602A983
:104FD000002000F070FC204610BC5DF814FB0000BF
:104FE000B758010802E008C8121F08C1002AFAD108
:104FF00070477047002001E001C1121F002AFBD159
:10500000704700002DE9FF5FDDE90210020DDDF8B9
:1050100038B001430FD10F9801244BA3012807D0CA
:1050200000980F9AC0E90031C0E90242BDE8FF9F35
:105030006FEA0B01F4E7A2F2FF3244F6105042434C
:1050400015140F9801280ED0A5EB0B00401C4FF053
:1050500000043E4EDFF8F890B0F1000AA04605DAF1
:10506000CAF1000717E0CBF10000F0E7074612E0B5
:10507000F80707D02246334640464946FBF7EEF98B
:10508000804689462246334610461946FBF7E6F924
:1050900004460E467F10002FEAD1DDE90201BAF185
:1050A000000F42464B4602DAFBF7D8F901E0FBF766
:1050B00045FA04460E460022264BFBF703FC03D8B4
:1050C0004FF0FF30014607E00022234B20463146D7
:1050D000FBF71EF9FBF7DDFB102409E0002C0ADBCF
:1050E0000A220023FBF7EEFA019B30321A55641EA8
:1050F00050EA0102F2D1641C019AC4F11103144474
:105100000F9A012A09D00122084301D15B450FDD26
:105110004FF0000205F101050DE0084303D1A3EBB8
:105120000B056D1E09E000204FF0110B0F9088E772
:1051300001DA00226D1E002A83D000980F99C0E981
:105140000231C0E9004571E7300000000000244052
:105150000000F03F0000F0430000E03F2DE9FF4F6A
:1051600095B006469A468946002521E2252801D0B9
:105170001799A6E00024F9492746761C4FF001084C
:1051800003943278203A08FA02F0084202D004432D
:10519000761CF6E730782A2811D06FF02F0230788D
:1051A000A0F13001092916D8039944F0020401EB5B
:1051B000810102EB41010844761C0390EFE759F8A6
:1051C000041B0391002903DA484244F4005403907D
:1051D00044F00204761C30782E2816D116F8010F00
:1051E00044F004042A280DD06FF02F013078A0F18C
:1051F0003002092A09D807EB870201EB420287181F
:10520000761CF3E759F8047B761C30786C280FD0B5
:1052100006DC4C2817D068280DD06A2814D104E089
:10522000742810D07A280FD10DE044F400140AE05D
:1052300044F4801401E044F440147178814202D1B6
:10524000761C04F58014761C96F800C0BCF1660F3D
:1052500010D01ADCBCF1580F70D00CDCBCF1000F80
:105260006DD0BCF1450FF3D0BCF1460FF0D0BCF1CE
:10527000470F24D1A4E1BCF1630F40D0BCF1640F0F
:1052800074D0BCF1650F1AD19AE1BCF1700F6ED0E9
:105290000CDCBCF1670FEDD0BCF1690F75D0BCF12F
:1052A0006E0F12D0BCF16F0F09D1B3E0BCF1730FD8
:1052B0002FD0BCF1750F76D0BCF1780F74D0179950
:1052C0006046524690476D1C70E1C4F302500228BC
:1052D00009D003280DD0D9F8001004280DD00D6096
:1052E00009F1040962E1D9F80010EA17C1E9005296
:1052F000F6E7D9F800100D80F2E70D70F0E759F8E5
:10530000041B8DF8001000208DF80100EB460120F1
:1053100003E059F804BB4FF0FF3061074FF0000184
:1053200002D40FE008F101018846B94211DA804544
:10533000F8DB1BF808100029F4D10AE060E03BE13B
:1053400008F1010188468142FADB1BF808100029A8
:10535000F6D103985346A0EB080721463846179A22
:1053600000F091FA284400EB080506E00DE049E062
:105370001BF8010B524617999047B8F10108F7D274
:10538000534621463846179A0DE10A21C4F30252CA
:105390004FF0000B0091022A07D059F8040BC117F7
:1053A000032A0AD00BE024E025E009F1070020F0F1
:1053B0000702F2E80201914605E000B2C117042A93
:1053C00001D140B2C117002906DA0A460021404245
:1053D00061EB02012D2202E0220504D52B228DF87B
:1053E0000420012203E0E20701D02022F7E79046E3
:1053F00054E00A2100E010214FF0000B00910DE075
:10540000102008E010204FF0000B44F0040408279F
:10541000009003E008204FF0000B0090C4F302520C
:10542000022A05D059F8040B0021032A08D009E00C
:1054300009F1070020F00702F2E80201914605E0B9
:1054400080B20021042A01D1C0B200214FF000082F
:10545000220723D5BCF1700F28D0009B83F01003E6
:1054600053EA0B0309D150EA010206D030228DF82D
:1054700004208DF805C002229046009B83F00803AB
:1054800053EA0B030AD150EA010201D1620705D5A4
:1054900030228DF804204FF001087F1EBCF1580F18
:1054A00009D02FA20C920CAA029211E040228DF892
:1054B00004200122E0E72FA2F4E75B46009AFBF705
:1054C00001F90C9B9B5C029AA2F1010202921370FB
:1054D00050EA0102F1D1029804A9A1EB000000F109
:1054E000200B600702D524F4803400E001275F45DB
:1054F00002DDA7EB0B0000E0002000EB0B010090A9
:1055000003984144A0EB01000390E00306D4534606
:105510002146179A039800F0B6F90544002706E0E3
:1055200001A85246C05D179990476D1C7F1C4745E6
:10553000F6DBE0030CD553462146179A039800F09A
:10554000A2F9054404E030205246179990476D1C9B
:105550000099481E00900029F5DC1EE00928010092
:1055600030313233343536373839616263646566D9
:10557000000000003031323334353637383941429B
:1055800043444546000000000298029952460078C4
:10559000491C0291179990476D1CBBF10001ABF1BA
:1055A000010BF1DC50E100F05BF9054406F1010666
:1055B000307800287FF4DAAD19B02846BDE8F08FC6
:1055C000600700D4062709F1070020F00701F1E881
:1055D0000220894600F00043190001D09DA109E096
:1055E000210501D59CA105E0E10701D09BA101E0C7
:1055F000AFF2840120F000431391BCF1650F11D08C
:1056000009DCBCF1450F0DD0BCF1460F20D0BCF138
:10561000470F3ED13EE0BCF1660F19D0BCF1670FD9
:105620007CD137E00021112F01DB112000E0781C34
:10563000CDE9000104A90CA8FFF7E4FCDDE90D01A8
:105640000C9A4FF0000B07F10108109200914CE00A
:105650004FF000400097CDE9018004A90CA8FFF7A6
:10566000D1FCDDE90E20DDE90C314FF0000B904656
:105670001093009218B907F1010001EB0008B7EB95
:10568000080003D4C0F1FF3B07F10108A8EB0700B5
:10569000019043E0012F00DA01270021112F01DDE5
:1056A000112000E03846CDE9000104A90CA8FFF75D
:1056B000A9FCDDE90D010C9A00914FF0000BB846F2
:1056C000109221070CD40099414500DA8846B8F1C0
:1056D000010F05DD109AA8F10101515C302908D0B5
:1056E000B84202DA10F1040F06DA0121CDE9011007
:1056F00014E0A8F10101E9E7002803DC8344A8EBEA
:10570000000102E0411C414500DD8846A0EB0B0092
:1057100000F1010001904FF000400290200705D4F5
:105720000198404502DB4FF0FF30019000208DF8DA
:105730004B0002980DF14B07B0F1004F26D002202C
:105740000C902B200D90029800280CDA4042029019
:105750002D200D9007E00A210298FAF79DFF3031C5
:10576000029007F8011D0C99481E0C900029F2DCEC
:1057700002980028EFD1A7F101010D980870307848
:1057800000F0200040F0450007F8020D11A8A0EB42
:10579000070000F1070002901398007800B1012083
:1057A00000EB0801019801EBE071029801440398B5
:1057B000A0EB0100A0F101000390E00306D45346E2
:1057C0002146179A039800F05EF805441398007874
:1057D00020B152461799904705F10105E00322D503
:1057E00053462146179A039800F04DF805441AE0F5
:1057F000BBF1000F07DB0098584504DD109817999E
:1058000010F80B0001E0179930205246904701989C
:105810006D1C401E0BF1010B019004D12E2052464D
:10582000179990476D1CB8F10001A8F10108DFDC61
:1058300005E017F8010B5246179990476D1C029925
:10584000481E02900029F4DC53462146179A03981B
:10585000A9E600002D0000002B0000002000000041
:105860002DE9F0410446002517461E46880405D45C
:1058700006E039462020B04705F10105641EF8D541
:105880002846BDE8F0812DE9F04104460025904608
:105890001E46C80301D5302700E02027880405D51F
:1058A00006E041463846B04705F10105641EF8D5CB
:1058B0002846BDE8F0810A68531C0B6010707047E1
:1058C00010B504460A466078012304F1300100F067
:1058D0001FFC08B1032010BD94F82E0294F82F127B
:1058E00040EA0120A0F52A41553901D0022010BD1F
:1058F00014F8660FE178627840EA0161A078A4F1BB
:105900006604000440EA022041EA00010B48B0EBC3
:10591000012F01D1002010BD14F8821FE2786378B6
:1059200041EA0261A278120442EA03221143B0EB79
:10593000012F01D1002010BD012010BD00464154AF
:1059400000E0401C02780AB18A42FAD10078704720
:105950002DE9F05F164602681378303B092B02D818
:1059600054783A2C04D000232BB10B20BDE8F09FD3
:10597000921C0260F8E7A24804680C608CB12078A1
:1059800020B1607800F0F8FBC1070CD00027384642
:105990002770607000F086FB0546E8070AD00320F8
:1059A000E4E70C20E2E71EB1400701D50A20DDE75D
:1059B0000020DBE7607804F10A02022100F082FB9C
:1059C00018B96089B0F5806F01D90D20CEE71EB1FE
:1059D000680701D50A20C9E7002631462046FFF7AF
:1059E0006FFF0146012912D104F5F770027972B1F7
:1059F000017AC27A41EA0266817A407A090441EA70
:105A00000020064331462046FFF75AFF014603298E
:105A100001D061B901E00120A8E794F83B0094F8B7
:105A20003C10B4F80AC040EA0120604501D00D20C6
:105A30009CE794F8460094F8471040EA012068B9C2
:105A400014F8540FE178627840EA0160A178A4F17B
:105A50005404090441EA022140EA0100A06104F172
:105A60002804217E04F8251C01FB00F1A07DE27DC5
:105A700040EA022505EB060244F8082C94F815A02C
:105A800004F826AC607EA37E40EA032924F8209C1B
:105A9000E07E237FA4F1280440EA032070B914F8C3
:105AA000500FE37894F8018040EA0360A378A4F1F2
:105AB00050041B0443EA082340EA03004FEA5C1841
:105AC000B9FBF8F3A0EB0500A0EB0100A0EB03008D
:105AD000B0FBFAF000F10200E0614FF0010540F682
