:020000040801F1
:10000000F87A012045020108D5110108D111010833
:10001000D3110108B30A0108614B01080000000078
:100020000000000000000000000000009D01010829
:100030001D0B010800000000E1010108B11C0108CE
:100040005F0201085F0201085F0201085F02010808
:100050005F0201085F020108F50D0108190E010891
:100060005F0201085F0201085F0201085F020108E8
:100070005F0201085F0201085F0201085F020108D8
:100080005F0201085F0201085F0201085F020108C8
:100090005F0201085F0201085F0201085F020108B8
:1000A0005F0201085F0201085F0201085F020108A8
:1000B000211D0108251D01085F0201085F020108DA
:1000C0005F0201085F0201085F0201085F02010888
:1000D0005F0201085F020108791E01085F02010842
:1000E000170E0108451601085F0201085F020108AA
:1000F0005F0201085F0201085F0201085F02010858
:100100005F0201085F0201085F0201085F02010847
:100110005F0201085F0201085F0201085F02010837
:100120005F0201085F0201085F0201085F02010827
:100130005F0201085F0201085F0201085F02010817
:100140005F0201085F0201085F0201085512010801
:100150005F0201085F0201085F0201087F1E0108BB
:100160005F0201085F0201085F0201085F020108E7
:100170005F0201085F0201085F0201085F020108D7
:100180005F0201085F020108DFF80CD000F04EFBAF
:100190000048004725680108F87A0120234B1968B8
:1001A0000868B0E8F04F80F309884FF0000080F352
:1001B000118870470000000003480068006880F361
:1001C000088862B600DF00BF08ED00E0DFF80C0031
:1001D000016841F470010160704700BF88ED00E0E4
:1001E000EFF30980114B1A681EF0100F08BF20EDC5
:1001F000108A20E9F04F106008B54FF0100080F32E
:10020000118807F07BF94FF0000080F31188BDE8FA
:10021000084019680868B0E8F04F1EF0100F08BFDA
:10022000B0EC108A80F30988704700BFE800002016
:100230004FF0100080F3118870474FF0000080F3FA
:10024000118870470648804706480047FEE7FEE7EA
:10025000FEE7FEE7FEE7FEE7FEE7FEE7FEE7FEE776
:10026000D11C01088901010840EA01039B0703D062
:1002700009E008C9121F08C0042AFAD203E011F8E5
:10028000013B00F8013B521EF9D27047D2B201E0A7
:1002900000F8012B491EFBD270470022F6E710B58B
:1002A00004460846114602462046FFF7EFFF204667
:1002B00010BD10B5044604E00B7800F8013B03B113
:1002C000491C521EF8D2204610BD0146002000E015
:1002D000401C0A5C002AFBD1704710B5002200E0E8
:1002E000521C835C8C5CA34201D1002BF8D1D8B2A4
:1002F000E1B2401A10BD30B504460020034600E0CC
:100300005B1C934203D2E05CCD5C401BF8D030BD57
:100310002DE9FE4F074681EA0300C00F0E4601900B
:1003200021F0004123F00044B81AA14105D238461B
:10033000314617461E460B46024623F00040104346
:1003400004D13846314603B0BDE8F08F350DC5F312
:100350000A00C3F30A510290401A0090402868DA5C
:10036000C3F3130040F4801B0198924620B1002390
:10037000D2EB030A63EB0B0B00985946C0F1400225
:10038000504600F0A7F980460C4650465946009A60
:1003900000F0AFF9C0197141EF1785EA11533B43E3
:1003A00040D0019A52B3009A012A11DC0022801A2F
:1003B0004FF0004361EB055103EA05538018CDE986
:1003C000002341F580114246234600F0B1F9BAE717
:1003D0002E050025401B61EB0601401941F58012F6
:1003E000001852412818A6F5001343EB020140EA19
:1003F000D470294318EB0808644113E064084FEAFD
:1004000038084FF0000244EAC0744FEA0553801ADE
:1004100061EB0301801841F5801149084FEA300073
:10042000801859414246234603B0BDE8F04F00F022
:1004300072B90198012240000023D0EB020263EB65
:10044000E07301984FEAE074381A66EB0401EBE7B9
:1004500083F000435CE781F0004159E72DE9FE4F4E
:1004600081EA030421F0004504F0004423F0004138
:100470004FF0000A009450EA050302D052EA01034B
:1004800004D10020014603B0BDE8F08FC1F30A5348
:10049000C5F30A541C44A0FB02B3C5F3130545F48D
:1004A000801CC1F3130141F480180CFB023300FBE4
:1004B000083EA4F2F334810A930A41EA8C5143EADC
:1004C00088530194A1FB03474FEA9C2505FB037366
:1004D0004FEA982601FB06373D05260545EA143507
:1004E000BBEB06016EEB0503850E920E45EA8C15FB
:1004F00042EA8812A5FB0206261E67EB00070C0DD8
:1005000044EA0334A41947EB1350C1F313064FF028
:10051000000319464FEA033343EA165343EA040340
:10052000019CE5FB0201A4F10C040294009C4FEA3B
:100530000632CDE900A400F0FBF8A4E72DE9F04D68
:1005400081EA030404F0004B21F0004714464FF009
:10055000000A23F0004150EA070220D054EA0102C9
:100560001DD0C1F30A550246C1F31300C7F30A5662
:10057000C7F3130340F4801143F48013A6EB05087E
:10058000101BD64608F2FD3873EB010002D308F1C8
:10059000010801E092185B41B8F1000F03DA002076
:1005A0000146BDE8F08D00204FF480150646074651
:1005B0000EE0B2EB040C73EB010C04D3121B0643E8
:1005C00063EB01032F436D084FEA300092185B4143
:1005D00050EA050CEDD152EA030012D082EA040081
:1005E00083EA0105284303D100224FF0004308E0CD
:1005F000101B8B4102D20122002302E06FF00102A6
:1006000053101AEB060047EB085110EB0A0041EBC0
:100610000B01BDE8F04D00F07EB800F0004230F074
:1006200000400DD0C10D01F5607142EA0151002278
:10063000C0F31600520742EAD00240071143704748
:1006400000200146704730B50B46014600202022AD
:10065000012409E021FA02F59D4205D303FA02F5CF
:10066000491B04FA02F52844151EA2F10102F1DC2F
:1006700030BD2DE9F05F0546002092469B46884636
:100680000646814640241BE028464146474622460E
:1006900000F0DEF852465B46801A994110D31046AE
:1006A0001946224600F016F82D1A67EB01084F464E
:1006B00022460120002100F00DF817EB00094E4101
:1006C000201EA4F10104DFDC484631462A46434699
:1006D000BDE8F09F202A04DB203A00FA02F1002056
:1006E00070479140C2F1200320FA03F31943904070
:1006F0007047202A06DBCB17203A41FA02F043EA82
:10070000E071704741FA02F3D040C2F120029140FB
:1007100008431946704710B5002B08DA401C41F118
:10072000000192185B411A4301D120F0010010BD75
:100730002DE9F04D92469B4611B1B1FA81F202E0EB
:10074000B0FA80F220329046FFF7C4FF06460F460B
:1007500040EA0A0041EA0B0152465B46084303D1D6
:1007600030463946BDE8F08D194652EA010015D0F1
:10077000C8F14002504600F06BF804460D46504662
:1007800059464246FFF7A6FF084301D0012000E08A
:100790000020044345EAE07526432F430A984FEAB8
:1007A000D625A0EB08000A304FEA46534FF000026E
:1007B00045EA47554FEAD72402D500200146D1E744
:1007C000010550196141DDE9084500196941BDE89D
:1007D000F04DA0E7C1F30A52C1F3130140F2FF3319
:1007E00041F480119A4202DA00200146704740F23B
:1007F00033439A42A2F2334202DC524200F028B85C
:10080000FFF768BF30B5002904DB4FF000444042D9
:1008100064EB0101002B04DB4FF00044524264EB17
:100820000303994208BF904230BD0000064C074DBB
:1008300006E0E06840F0010394E8070098471034B0
:10084000AC42F6D3FFF7A4FCDC860108FC86010865
:10085000202A04DB203A21FA02F00021704721FA15
:1008600002F3D040C2F1200291400843194670477C
:1008700070B501EB020410F8015B15F0070301D11C
:1008800010F8013B2A1106D110F8012B03E010F8F3
:10089000016B01F8016B5B1EF9D12B0705D4002316
:1008A000521E0FD401F8013BFAE710F8013B02F1A8
:1008B0000202A1EB030303E013F8015B01F8015B03
:1008C000521EF9D5A142D6D3002070BD00298168FF
:1008D00002D041F0010101E021F001018160704787
:1008E000094B10B51968094A01EA0201D0E9002450
:1008F00042EA0402D0E9024044EA000442EA040267
:1009000042EA01021A6010BD04230140E030FCFFFE
:100910000029816802D041F4807101E021F48071E6
:10092000816070470029816802D041F4007101E0C4
:1009300021F400718160704730B542680F4B0C792B
:100940001A400B6842EA04221343436082680C4B4E
:100950004D791A40D1E9034323438C6844EA4504A6
:10096000234313438360C26A097D22F47002491E47
:10097000C9B242EA0151C16230BD0000FFFEFFFC76
:10098000FDF7FFC070B5072609290AD9C568A1F18E
:100990000A0404EB4404A640B543A3401D43C560CC
:1009A00007E0056901EB4104A640B543A3401D43A0
:1009B00005611F23072A09D2446B521E02EB8202F3
:1009C00093409C4391400C43446370BD0D2A09D26F
:1009D000046BD21F02EB820293409C4391400C4374
:1009E000046370BDC46A0D3A02EB820293409C43DB
:1009F00091400C43C46270BD816841F080418160C8
:100A00007047000006490028D1F8040302D040F4E2
:100A1000000001E020F40000C1F80403704700006A
:100A20000020014010B5074C2060084600F00CF88B
:100A300020680028FCD1BDE8104000214FF0804024
:100A400001F0AFB9180000203EB504464FF08045D4
:100A50000021284601F0A5F900220121284601F0D5
:100A6000C5F9022C02D0012C02D004E00B2001E0D9
:100A700042F6DF6001900520ADF800000020ADF8DF
:100A80000800ADF802006946284601F0B7F90121D7
:100A9000284601F083F90121284601F075F9012269
:100AA0001146284601F0A2F90121284601F079F902
:100AB0003EBDFEE70029016802D041F0010101E0DE
:100AC00021F001010160704730B50368124ACC681B
:100AD00013400A682243D1E905452C432243CC69DF
:100AE00022430C6A22434C6A22438C6A22434C6B99
:100AF00022438C6B22431A430260426922F00703AF
:100B0000D1E90B2422431A4342610A6942604A68D0
:100B100082608968C16030BD3F801CF07047000072
:100B20000249486048680028FCD1704764000020F2
:100B30000C4909680C4A126860B1012810D14FF0C5
:100B4000EE300AB119B107E0814209D006E08242D5
:100B500004D005E021B10AB1AB20704701207047F5
:100B6000002070470080000800C0000810B5022176
:100B7000102000F0E7F908280BD10021054800F00B
:100B800031FA082805D10221BDE81040182000F0F4
:100B9000D9B910BD008000082DE9F041DFF8F880D8
:100BA0000024651ED8F800203C4F39684FF0EE3322
:100BB0003B4E3C489A4213D0AA4201D06AB942E067
:100BC000002963D0994208D10221102000F0BAF91F
:100BD000082836D1002138460DE0FFF7C7FF2FE087
:100BE00061B1491CF9D10221182000F0ABF90828A5
:100BF00027D10021404600F0F5F921E00746D8F85A
:100C0000081056F82400814200D125B2AC420BD026
:100C1000244900F095F8012806D056F824003968D8
:100C200000F0B2F808280CD1641C402CE7D3002156
:100C3000404600F0D7F9082803D12AE000F082F9F5
:100C40000828BDE8F0810029C7D0491C21D0804682
:100C5000B96856F82400814200D125B2AC420CD0CC
:100C6000104900F06DF8012807D056F82400D8F894
:100C7000001000F089F80828E3D1641C402CE7D369
:100C80000021384600F0AEF90828DAD10221102000
:100C9000D4E702211820D1E70080000800C0000836
:100CA000F8750120C80100202DE9F0478046002496
:100CB0000F461F4D2046FFF73BFF012803D020B110
:100CC000AB20BDE8F087182601E01A4D10264FF042
:100CD000EE31284600F086F90828F2D13946404620
:100CE00000F052F80828ECD1134FDFF8509057F875
:100CF000240040450CD0114900F022F8012807D00B
:100D000057F82400D9F8001000F03EF80828D8D190
:100D1000641C402CEBD30221304600F013F9082864
:100D2000CFD12846BDE8F047002100F05BB90000B4
:100D30000080000800C00008F8750120C8010020EC
:100D40002DE9F04105460E4601240D4F0020FFF726
:100D5000EFFEAB2812D007EB80320A49121D01EBDF
:100D6000803008E00168A94204D150F8040C002446
:100D7000306002E008389042F4D82046BDE8F081A7
:100D800000800008FCBF000870B505460E46104CF8
:100D90000120FFF7CDFEAB280CD00E4904EB8034C8
:100DA00001EB803103E02068401C04D008348C4201
:100DB000F9D3802070BD3146204600F013F9082891
:100DC000F8D12946201DBDE8704000F00BB90000A5
:100DD00000800008FCBF000870B504460D46FFF710
:100DE000D3FF802805D129462046BDE87040FFF793
:100DF0005BBF70BD10B5012000F05CF8002809D081
:100E0000002000F099FE06F0BFFCBDE81040012074
:100E100000F04AB810BD704710B5022000F04AF843
:100E2000002809D00548D0F8800040698047BDE817
:100E30001040022000F038B810BD0000B40A0020B5
:100E400030B5012185B0084600F010FA0121880371
:100E500000F03CFA00258DF8105001248DF8135055
:100E600003A91048039400F0FAF80021084600F0A6
:100E7000BDFE8DF8045008208DF8050000948DF813
:100E80000640684600F026F806208DF808008DF828
:100E900009408DF80A408DF80B4002A800F09CF93B
:100EA00005B030BD000002400149086070470000F5
:100EB000143C0140064A014600201268044B0A40D7
:100EC00014331B680B4202D0002A00D00120704767
:100ED000003C014030B51A4A8379016853B3136866
:100EE0008B431360111D0B680468A3430B600179E9
:100EF00011440B68046823430B60114B08331968D5
:100F00000468A14319601C1D21680568A94321607C
:100F10004179102905D011440A68006802430A602B
:100F200030BD1968026811431960216800680143E7
:100F3000216030BD0079104402688A43026030BDF0
:100F4000003C014030B50546002429B1012927D0D5
:100F5000022928D04FF4407400F074F808281ED1FC
:100F6000124B186820F4407018601868204318600D
:100F7000186820F0F8001860186845F0020108436E
:100F80001860186840F48030186000F05BF8196849
:100F900021F002011960196821F0F801196030BDD3
:100FA0004FF48074D8E74FF40074D5E7103C02404A
:100FB0000B4908200A68D20301D5012070470A684E
:100FC000D20601D5052070470A6812F0EF0F01D054
:100FD0000620704709688907FBD507207047000085
:100FE0000C3C024030B504460D4600F02BF80828B2
:100FF00013D10A4B186820F440701860186840F448
:1010000000701860186840F001001860256000F05A
:1010100019F8196821F00101196030BD103C024037
:1010200005480068002805DA034804490C380160C7
:101030000349016070470000103C024023016745EE
:10104000AB89EFCD00B5FFF7B3FF0128FBD000BDA2
:10105000022000F071FD3220FFF762FDF8E7F0B5E5
:10106000002201264FF0030C0C6806FA02F31C4024
:101070009C422DD1056853000CFA03F4A54305608A
:101080000D7907689D403D4305600D79012D01D024
:10109000022D12D18568A54385604C7985689C40F6
:1010A0002C438460446806FA02F5AC43446044680B
:1010B0008D799540ADB22C434460C46855000CFA5C
:1010C00005F7BC43C460CC799C40C3681C43C46032
:1010D000521C102AC8D3F0BD4B07DB0E9A40C9083A
:1010E00010B500EB8100016A0F249C40A14301620E
:1010F000016A1143016210BD41837047018370474B
:10110000084900EB800010B501EB0010142105F038
:1011100015FADFED050A9FED051A60EE200A80EE54
:10112000810A10BDA073012000404E4500F07F45AC
:101130004069806880B27047D0F8CC000068C0F386
:1011400041407047084490F89B02704700EB8100D3
:10115000D0F85002704710B5044600200346C4F88A
:10116000100204EB8002C2F81432C2F85032221886
:1011700082F88C32401CC0B20F28F2D30820A4F8A9
:10118000B202204602F0C4FD204602F0C5FB204614
:1011900002F0DEFA0121204602F01AFE204602F09B
:1011A00044FB204602F0DEFB002010BDD0F8100208
:1011B000704710B502F097FD002010BD00224318C3
:1011C00083F89B2200EB4113C3F8C02202F0D9BC84
:1011D000FEE7FEE77047000070B50F23C278017884
:1011E00001244FF0E025EAB1134A1268867802F430
:1011F000E062C2F5E062C2F30722D340C2F1040C00
:1012000042781E4002FA0CF20C4B16433201CA54CB
:10121000007800F01F018C40400905EB8000C0F809
:10122000004170BD01F01F008440480905EB8000BB
:10123000C0F8804170BD00000CED00E000E400E06B
:101240000249084302490860704700000000FA059F
:101250000CED00E0014801F067BF0000040600202B
:10126000014908627047000000000E42044A00294C
:10127000116801D0014300E0814311607047000014
:1012800030380240044A0029116801D0014300E0CF
:10129000814311607047000034380240044A00293D
:1012A000116801D0014300E08143116070470000E4
:1012B00040380240044A0029116801D0014300E08F
:1012C000814311607047000020380240044A002921
:1012D000116801D0014300E08143116070470000B4
:1012E00044380240044A0029116801D0014300E05B
:1012F00081431160704700002438024030B5224B12
:101300001968224C11F00C0104D06510042903D097
:10131000082903D004601DE005601BE01A4A121F73
:101320001168C1F3805C1168BCF1000F01F03F014E
:1013300002D0B5FBF1F101E0B4FBF1F114681268E1
:10134000C4F388146143C2F30142521C5200B1FB42
:10135000F2F1016019680E4A01F0F0010909545CCC
:101360000168E14041601C6804F4E054A40A145D83
:1013700021FA04F484601B6803F460435B0BD25CC5
:10138000D140C16030BD0000083802400024F400A4
:101390009C00002002460020510901290BD002299F
:1013A0000CD00849096802F01F02012393400B4248
:1013B00000D00120704703497439F3E70149091F40
:1013C000F0E70000743802400149086070470000EF
:1013D000800E474201490860704700003C0E4742BA
:1013E000C0F30121032907D1074B1968074A21F4EB
:1013F000F81102400A431A60034968310A68C0F3D1
:101400000B0002430A60704708380240FFFCFF0FE0
:101410002DE9F04110B1012806D102E0344D354CE0
:1014200002E0344C344D103440F2255841462846F1
:1014300000F07EFD00264FF4006730B34146284699
:1014400000F020FD284600F007FE0146A068D0F815
:1014500000288154A068D0F80018491CC0F8001872
:10146000A068D0F800183A46914201D3C0F800684D
:10147000A068D0F80418D0F8000805F053FE20B199
:1014800000224146284600F072FD40F2277841468E
:10149000284600F04DFD002827D04146284600F0A0
:1014A000F1FCE068D0F80418415C284600F0D8FD53
:1014B000E068D0F80418491CC0F80418E068D0F8B7
:1014C0000418B94201D3C0F80468E068D0F80418E1
:1014D000D0F8000805F020FE002806D04146284636
:1014E000BDE8F041002200F042BDBDE8F0810000FF
:1014F00000440040380B0020001401402DE9FE4F4D
:1015000004464C48002600EB041588462E6004EB88
:10151000042120306E6000EB01102C7100F60803EE
:10152000C5E9020352B1444AA2F1100116601471D8
:10153000C2E902030E600C71C1E902033F4814B115
:10154000012C05D008E000680121FFF7A7FE03E0A9
:1015500040680121FFF7BAFE384838490830103199
:1015600050F8240051F8241008430121FFF77EFEB3
:101570003248DFF8CCB01038025D001F015D5BF827
:101580002400FFF7A9FD2D480BF108090E38025D74
:10159000001F015D59F82400FFF79EFD27488DF8D4
:1015A00006604FF0010A8DF807A002270A388DF86F
:1015B000047030F8140000908DF805705BF824007A
:1015C0006946FFF74CFD1D488DF80470801F694681
:1015D00030F81400009059F82400FFF740FDA9F1FD
:1015E0001007414657F8240000F0DAFC13480C3885
:1015F000005D8DF808000A208DF809008DF80A605A
:101600008DF80BA002A8FFF7E7FD57F8240040F281
:10161000277100F037FC57F82400012240F22551D1
:1016200000F0A5FC57F82400012100F031FC284609
:10163000BDE8FE8F380B0020882B0020C0800108F9
:101640007800002010B54FF48054204600F0AAF82E
:10165000002807D0204600F01BF86001BDE81040CC
:10166000FFF722BC10BD010901EB810100F00F0062
:1016700000EB4100C0B27047002103E0491C0A386A
:10168000C9B2C0B20A28F9D2090740EA116070470E
:10169000C0F30F1040F08000C1430348026802F01D
:1016A00080021143016070470C28004010B50121F1
:1016B0000807FFF7F3FD0120FFF7D2FD0120FFF738
:1016C00083FE6120FFF766FE0028FAD04FF4007019
:1016D000FFF786FE0120FFF77DFE00F09DF90C4824
:1016E0007F214160FF2181600021016000F0BEF890
:1016F000042000F0B3F9002000F072F90121880302
:1017000000F094F8BDE81040012000F0BBB90000E3
:10171000847301200B4A0020116849060FD4411E32
:10172000116093131168401C01F04001984201D0F0
:101730000029F7D01068400601D40020704701202E
:10174000704700000C2800400248016821F0800129
:10175000016070470C280040020010B50F480C468D
:1017600001680F4801EA00014FEA1140E070C1F33F
:101770000423637001F03F03A370C1F34231217071
:101780000AD1FFF770FFE0706078FFF76CFF6070C0
:10179000A078FFF768FFA07010BD0000042800408B
:1017A0003FFFFF000B4A0021126802F00403094AC0
:1017B000383A126803EAD03302401A43064B1B68DA
:1017C00003EA101003D00004000C00D001210846E9
:1017D00070470000402800400C280040020010B56F
:1017E00010480C460168104801EA0001C1F30540A9
:1017F0002070C1F30623637001F07F0301F48001C0
:10180000A3704FEA1141E1700AD1FFF72CFF20705D
:101810006078FFF728FF6070A078FFF724FFA070C2
:1018200010BD0000002800407F7F7F0030B50E4CC7
:10183000CA222260532222600B4B0B4D1C3B1C35ED
:10184000002920F00402196800F0040004D01143BC
:1018500019602968014303E09143196029688143B5
:101860002960FF20206030BD2428004070B5124D53
:1018700004460026CA20286053202860FFF74AFF4C
:10188000A8B10D481C38016821F0400101600168D1
:101890002268114301600848A1681438016001689A
:1018A000626841EA02410160FFF74EFF0126FF2016
:1018B0002860304670BD00002428004070B5002527
:1018C000020048780C4610D0FFF7CDFEA078FFF755
:1018D000CAFEA078E17840EA0146607821784FEAB4
:1018E000002040EA4130064315E0C10603D520F050
:1018F00010000A306070E078FFF7BEFE06046078E2
:10190000FFF7BAFE46EA0026A078FFF7B5FE0643C9
:10191000207846EA40360B4CCA20206053202060D5
:10192000FFF7F8FE50B10848064006482038066028
:10193000FFF70AFF00F070F800B10125FF202060DA
:10194000284670BD242800403FFFFF0070B50C46BC
:10195000214900250200207809682B464FEA4161A1
:1019600004D000292CDAFFF77EFE2AE0002900DBF4
:10197000E370FFF781FE06046078FFF77DFE46EA1C
:101980000026A078FFF778FE0643E07846EA004696
:10199000114CCA201C34206053202060FFF7BAFE8F
:1019A00050B10E4806400C4808380660FFF7CCFEE0
:1019B00000F032F800B10125FF202060284670BDFC
:1019C000E370A078217840EA01466078E17800026F
:1019D00040EA01400643DBE7082800407F7F7F00A4
:1019E0000549CA220A6053220A60034A103A10606D
:1019F000FF200860704700002428004010B505490A
:101A00000120FFF7EBFE0349BDE81040091D01204E
:101A1000FFF7A2BE540100200F4B10B50020CA21D1
:101A20001960532119600C4A183A116821F0A0017D
:101A300011604FF400341168401C01F02001A042F5
:101A400001D00029F7D01068800601D5012000E000
:101A50000020FF21196010BD24280040084ACA2137
:101A600011605321116006491C390B6823F00703EC
:101A70000B600B6803430B60FF2010607047000091
:101A800024280040134A10B50021CA2313605323B1
:101A90001360104B1C3B0028186803D040F4806092
:101AA000186012E020F4806018600A4B183B9C1309
:101AB0001868491C00F00400A14201D00028F7D0AA
:101AC0001868400701D4002000E00120FF211160C8
:101AD00010BD0000242800401CB504460E4801211A
:101AE00050F82400FFF7C2FB0B480021083830F8FB
:101AF0001400009001208DF804008DF806108DF878
:101B0000070002208DF805000448694650F82400BB
:101B1000FFF7A5FA1CBD0000EC8001088C00002036
:101B20000349044A31F8101052F82000018370472D
:101B3000E48001088C000020044951F820104A6913
:101B4000034B33F8100042404A6170478C0000207C
:101B5000E480010870B5044622480D4686B050F86E
:101B600024000121FFF782FB01218803FFF7AEFB70
:101B70001C4800268DF81060001F8DF8136030F8A7
:101B800014000390184803A950F82400FFF767FADF
:101B9000012D24D11348C01F015D401E005D00F0DF
:101BA00025F81048801E30F8140000908DF804606D
:101BB00008208DF805008DF806506846FFF78AF971
:101BC0000848801F005D8DF808000F208DF809007F
:101BD0008DF80A008DF80B5002A8FFF7FDFA06B049
:101BE00070BD0000E08001088800002010B58A0761
:101BF00021F003040649120F21440F230C6893407F
:101C00009C430C600B68904003430B6010BD0000C8
:101C100008380140224A0020116841F480311160E7
:101C20004FF4A063116800F1010011F4003F01D1ED
:101C30009842F7D11068800331D5194840300168C7
:101C400041F0805101601748016841F48041016012
:101C50001348083001680160016841F400410160E7
:101C6000016841F4A0510160031F0F491960116818
:101C700041F08071116011688901FCD50B4A40F276
:101C800005611160016821F003010160016841F004
:101C9000020101600168C1F381010229FAD1704794
:101CA000003802400070004008544007003C0240E9
:101CB000064910B54FF080500860FEF7B9FA05F0FC
:101CC00009FBBDE81040FEF7B8BA000004ED00E0E3
:101CD0000E4810B5016841F0010101600B4A002176
:101CE0000832116002680A4B1A400260031D094A5B
:101CF0001A60026822F48022026004480C300160FD
:101D0000FFF788FF05490448086010BD003802400D
:101D1000FFFFF6FE103000240000010808ED00E08F
:101D200001F0F4BC70B5154C0121204600F052F8CA
:101D3000002820D00121204600F030F8104C4FF050
:101D400000002188142917D20E4B04F1080232F842
:101D5000105000EE105A00EB800503EB0515B8EEAD
:101D6000400A05EB8105401CC0B285ED000A03283E
:101D7000EDD3491C218070BD208070BD000400405F
:101D80005C010020A07301200029018802D041F0ED
:101D9000800101E021F0800101807047C943018288
:101DA00070470029018802D041F0010101E021F0D3
:101DB00001010180704710B501210220FFF76EFA82
:101DC00001210220FFF776FA0021BDE81040022031
:101DD000FFF770BA02460020138A92890B4202EA8A
:101DE000010202D0002A00D001207047002A828917
:101DF00001D00A4300E08A438281704730B50288EF
:101E0000164C174DA0420DD0A8420BD0B0F1804F18
:101E100008D0144B984205D0134B984202D0134B74
:101E2000984203D122F070034A881A43104B98421B
:101E300006D0104B984203D022F440730A891A430B
:101E400002804A68C2620A880285A04201D0A84284
:101E500001D1897A01860121818230BD00000140D3
:101E6000000401400004004000080040000C004055
:101E700000100040001400400020FFF7C9BA012004
:101E8000FFF7C6BA0A0A01219140C9430180704791
:101E90000029818902D041F4005101E021F4005170
:101EA000818170471C4910B5884206D1012110205C
:101EB000FFF718FA0021102028E01849884202D1C3
:101EC00001214C0410E01649884202D101218C0402
:101ED0000AE01449884202D10121CC0404E01249ED
:101EE00088420AD101210C052046FFF7E3F920467C
:101EF000BDE810400021FFF7DDB90C49884209D147
:101F000001212020FFF7EEF900212020BDE810403C
:101F1000FFF7E8B910BD0000001001400044004088
:101F200000480040004C00400050004000140140B8
:101F300030B501F01F0C01250024C1F3421305FA4E
:101F40000CF2012B0FD0022B0FD0838A4FEA112104
:101F50000088134205FA01F500EA050001D000B13E
:101F60000124204630BD8389F0E7038AEEE7C1F300
:101F7000421301F01F0C012101FA0CF1012B07D0D3
:101F8000022B07D01430002A026805D00A4304E06F
:101F90000C30F8E71030F6E78A4302607047000023
:101FA0007FB50446008A0D4620F44051E888084376
:101FB0002082A18941F20C608143A8882A891043BC
:101FC0006A890A431043A081A08A20F44071A8893D
:101FD0000843A0826846FFF791F91D48844202D069
:101FE0001C48844201D1039800E00298A1890904A9
:101FF000002900EBC00101EB0010296802DA4FEA6A
:10200000410101E04FEA8101B0FBF1F06422B0FB35
:10201000F2F14FEA01114FEA11136FF018056B430B
:1020200000EB8300A3891D044FF0320306D503EBB8
:10203000C000B0FBF2F000F0070005E003EB001079
:10204000B0FBF2F000F00F00084320817FBD0000DC
:1020500000100140001401408088C0F30800704760
:10206000C1F308018180704730B5034600224FF666
:10207000FF7403EB4205B5F88C542D0404D5521CB3
:10208000D2B2082AF5D32246A24205D003EB420081
:1020900041F40041A0F88C14D0B230BD10B58C468C
:1020A000194600EB4114012384F8AE32C4E9AEC2F4
:1020B00094F8C42202B1022284F8B422FFF77EF819
:1020C000002010BD10B58C46194600EB41140023CA
:1020D00084F8AE32C4E9AEC294F8C52232B102220D
:1020E00084F8B422FFF76AF8002010BD84F8B432F7
:1020F000F8E730B402240C7501244C750024CC821E
:102100000A8315064C8300EB431202D582F8C442C1
:1021100001E082F8C542002330BC1A4600F01BB82B
:10212000D0F8AC2401211172D0F8AC0400218172E6
:10213000704710B58C46194600EB411404F52B741A
:102140000123A3704FF002032372C4E903C2FFF717
:1021500035F8002010BD70B50C4615461E4649796D
:10216000FEF7F0FF01460120E2780346012A0AD07B
:10217000022A07D1012910D0032911D0042901D145
:10218000E370032070BD2178617009212170A56082
:10219000A68123770221E17070BDE370002070BD3D
:1021A000E370022070BD10B58C46194600EB411457
:1021B000002384F8AE32C4E9AEC21AB194F8C52245
:1021C00052B102E0012284F8C522022284F8B4222E
:1021D000FEF7F4FF002010BD84F8B432F8E78C4617
:1021E000114600EB411310B503F52B7300229A70D2
:1021F0004FF003021A724FF00802C3E903C2FEF760
:10220000DDFFC0B210BD0221002200EB4103491CDA
:10221000C9B2A3F88C240829F7D30020704770B501
:1022200005460020087048700C4688700121E17056
:1022300021774022A27184F8200084F821102179AE
:10224000284600F025F86179284600F021F80020A2
:1022500070BDD0F8AC2401215172D0F8AC0400213B
:10226000C172704770B50C25044605290AD00429AF
:1022700008D006290BD12570D0F880000068BDE891
:1022800070400047D4F88000406C8047257070BDD6
:10229000082908D200EB410000F28C41B0F88C0410
:1022A000C0F30E0008800020704730B442F0800276
:1022B000DDE9024C0A7506224A750322CB82B2EB95
:1022C000132F02D140F2094200E000220A83A1F854
:1022D0001AC0224630BC6346FFF73DBF0A88037828
:1022E0001A440A800178084470472DE9FC411546DC
:1022F00000F58877CDE900750C464FF40073002295
:10230000FFF7D3FF060009D13B4604F1500204F168
:102310003E0104F13400009500F083FF3046BDE833
:10232000FC817CB50446154600F58870CDE90005B2
:102330000E464FF4807300222046FFF7B6FF0028B8
:1023400030D104F58874082D217806F8221F6178B1
:102350007170A178E27801EB0221718021793171ED
:1023600061797171A179B171E179A4F58874F17124
:1023700018D904F58C742178627801EB022131813F
:10238000A178E27801EB022171812179627901EB78
:102390000221B181A179B173E179F173217A3174AC
:1023A000617A71747CBD7CB51E46069D00F588740B
:1023B00042F440730022CDE90045FFF776FF0100AB
:1023C00014D16078032811D12078821EAA4200DC43
:1023D0001546A41CAAB2002004E0235C801C06F869
:1023E000013B80B29042F8D30020307008467CBD9B
:1023F0002DE9F05F002680468E74087F0B270925A3
:10240000DFF8B8910C464FF0080B4FF0050A0C2886
:1024100017D2DFE800F0CF060E3942586A7A839D62
:10242000AEC1627904F114014046FFF7D8FE0220E4
:10243000B9E061794046FEF785FE012802D0032805
:102440001ED0B7E0207D618B00F0800051B141F2D9
:102450008832A9F80020802802D084F81CA008E067
:10246000032005E03222A9F80020802806D00720AA
:1024700020774046FEF75CFE20829BE02577F8E758
:10248000277784F812A095E0A0892379C2B240464C
:10249000A168FFF74EFE042085E021794046FEF753
:1024A00051FE01280DD004286ED0032872D040467A
:1024B000FEF73EFE218A411AB9F80000814269D830
:1024C00078E02577F3E7607908EB401090F8C512C3
:1024D00081F0010180F8C512A0896379C2B240463B
:1024E000A168FFF760FE06205DE061794046FEF7D7
:1024F00029FE012804D0042846D0022802D040E05A
:10250000072050E084F81CA054E0002223791146F3
:102510004046FFF70EFE84F81CB04BE021794046A0
:10252000FEF710FE054601282ED0032D32D040467E
:10253000FEF7FEFD218A411AB9F80000814229D830
:10254000042D37D1607820700420A074032631E078
:102550006079002208EB401090F8C51281F001016B
:1025600080F8C512637911464046FFF71CFE0A2029
:1025700019E061794046FEF7E5FD012804D0022804
:1025800006D0032806D015E06078207012E001E044
:1025900025770FE027770DE0A07B401CC0B2A07329
:1025A000022802D80120207704E084F812B0607875
:1025B000207002263046BDE8F09F0000D8000020C1
:1025C0002DE9F0410C468046012589780026FF2040
:1025D00092B02F460A2953D2DFE801F00523325387
:1025E0005C6E8199ACB6082221464046FFF799FE01
:1025F000002845D194F82900A0714046FEF7D9FD86
:10260000A770A0790023CDE9006061791A464046A1
:1026100000F06EFDA0790023CDE9006021791A4613
:102620002BE0122221464046FFF77BFE002827D1EF
:10263000D4F88000C16904F122008847022081E0BB
:1026400001222146404600F02DFF00287DD104F1F3
:1026500004042777E06F006A8047032004F8020C27
:1026600000960196227F21780023404600F040FD2D
:1026700000960196227F61780023404600F038FDE5
:1026800063E0092221464046FFF72FFE00285CD177
:10269000042057E0E28E21464046FFF726FE70BB3D
:1026A000D4F8800004F1500204F13E01436A04F1C1
:1026B00034009847052045E094F83020062652B1B2
:1026C000009002AB21464046FFF76DFEB8B9D4F842
:1026D0008000816A11E0D4F88000816A13E094F8E8
:1026E0003120072662B1009002AB21464046FFF739
:1026F0005AFE20B9D4F88000C16A02A804E024E0A0
:10270000D4F88000C16A13A08847A6701DE094F831
:102710003220082652B1009002AB21464046FFF716
:1027200042FE90B9D4F88000016BE6E7D4F880004F
:10273000016BE8E794F839202146404600F0BEFEE0
:1027400018B90920A07000E0002512B02846BDE8A5
:10275000F08100004E2F41002DE9F04105462DED9E
:10276000028B0F4614461E469DED088A00F078FF46
:10277000002000F029FF21462846FFF750FDE667BC
:102780000C4A84ED208A40F2AC400021C5F8AC240C
:1027900011724059417239462846FEF7DCFCD4F8E4
:1027A000800000688047BDEC028B2846BDE8F04100
:1027B00000F036BFDC00002010B584460A4C012032
:1027C00012B1012A08D102E02378E27801E06378AF
:1027D000A2786046FFF78DFC044AD168491CD1609D
:1027E000042900D9042010BDE82D0020B0000020ED
:1027F0000149002008707047D82D002070B50546AB
:102800000124FEF7D3FCD8B1104801782846FEF722
:102810009DFC0D2813D10E480E4A016891420ED13D
:10282000A0F1200241685268914209D1007B20B199
:10283000012805D0022802D002E0002400E0022492
:1028400003481030C473204670BD0000E82D0020FE
:10285000C82D0020555342530A490A23012802D0AB
:1028600002280CD07047084A1078401CC0B2107083
:102870000A2804D2062008700120C87070470B7027
:1028800070470000D82D0020C00000202DE9F05F27
:102890000D4680460124FEF789FC00282AD0514EBF
:1028A0000027DFF844B13078DFF840914FF0080A94
:1028B0000B281FD2DFE800F0060B2359626D757DEF
:1028C000824D9100404600F093F9012013E021224F
:1028D0002A75FF226A75EF822F830023404629461E
:1028E0006F831A46FFF737FC04004FF0020002D056
:1028F000032C02D072E0307070E0707027E0A122EB
:102900002A75FE226A75EF822F830127364A4046D8
:1029100029466F833B460832FFF71DFC04004FF049
:10292000030102D0032C11D058E09BF808008BF86B
:10293000480010B199F801200AB131704EE089F8D1
:102940000170D5F88000006C804747E07170092065
:10295000D1E76B79002229464046FFF7CAFB040005
:102960003CD18BF848707078C5E7404600F02CFBEE
:1029700008B9042008E0FFF76FFF2FE0404600F0A1
:1029800083FA0028F7D10520307089F80070002400
:1029900024E0404600F0B6F90028ECD186F800A00B
:1029A000F3E7404600F0C0FA0028E4D170783070B8
:1029B000EDE72946404600F01BF80FE0D5F880000F
:1029C000C06B804710F0FF0002D0012803D005E063
:1029D00086F800A002E0062400E004242046BDE8BA
:1029E000F09F0000D82D0020E82D0020C00000201E
:1029F0002DE9F05F88468146FEF7D8FB00281DD000
:102A0000784C0527784A2179784D00264FF0080B3D
:102A10004FF0020A092911D2DFE801F01005123542
:102A2000629EB3C9D6006F4953781F223039484699
:102A3000FFF748FB0120607184F804A0BDE8F09F17
:102A400051784846FEF77EFB012806D0022818D0B0
:102A50000428F3D101202870B3E06248EE603038DA
:102A600084F805A0017B806801F08001002867D010
:102A70006860A068A860802901D004208BE0032052
:102A800089E0607987E0904611784846FEF75AFB66
:102A9000012802D0617903291CD00320EE60607107
:102AA000686840280DD998F8003040224846A96847
:102AB000FFF7F4FA686840386860A8684030A8609A
:102AC000BCE790B382B298F800304846A968FFF797
:102AD000E5FA33E00428B1D12E70072020710EE012
:102AE000904651784846FEF72DFB012809D0022870
:102AF00028D00428A2D10120287084F804B067717E
:102B00009CE70420EE606071686840280ED998F850
:102B1000013040224846A968FFF7D4FAA86840303F
:102B2000A86068684038686088E709E040B182B210
:102B300098F801304846A968FFF7C4FA6E607DE74F
:102B400027717BE7A96898F801304846BDE8F05F37
:102B500040224039FFF7B6BA2249677110393F2049
:102B6000A160A0810D230D46EE545B1E13F0FF0300
:102B7000FAD12E7013783F224846FFF78FFA0620CD
:102B800009E011784846FEF7DDFA012805D004284F
:102B900096D12E700720207150E7EE606771A07803
:102BA000207041464846FFF729FEE07346E70022C1
:102BB00041464846FFF700FE70B9287802287FF4A6
:102BC00060AF84F804B039E7012241464846FFF778
:102BD000F3FD00283FF455AF042891D184F80FA0ED
:102BE0002CE70000D82D0020E82D0020B0000020A8
:102BF00010B5FEF7DBFA002148B10848064A02602A
:102C0000074A42604173054A01203032D0700548BE
:102C1000C1600548017010BD55534243A82D0020E6
:102C200050403020B0000020C000002070B50C4D96
:102C300004460026697831B100F013FF6978204618
:102C4000FFF726FB6E702978002907D0204600F098
:102C500008FF29782046FFF71BFB2E7070BD00008F
:102C6000E82D00202DE9FC41054691F843000C4673
:102C7000082803D194F84500502806D0D1F88000E8
:102C8000006C80470020BDE8FC8194F852001C4E87
:102C9000010604D5F070B4F85400B08003E0B070C1
:102CA000B4F85400F08094F85A00010604D5F0708E
:102CB000B4F85C00B08003E0B070B4F85C00F08061
:102CC000B1782846FFF7D0F97070F1782846FFF701
:102CD000CBF93070F0880227CDE9007004F12004B0
:102CE000717863782278284600F072FAB088CDE9CE
:102CF0000070637822783178284600F069FAC1E7DD
:102D0000E82D002070B50324FEF750FA30B3214DB2
:102D1000214E0022E8780123012802D0022836D172
:102D20001DE01E493F2480208C6008730A208873B0
:102D30000520AE60A87010200E18401EF27310F02F
:102D4000FF00F9D11A20C8734C74CC742B71072082
:102D500028700320E8730220E870032417E0E87B62
:102D600020B101280ED002280FD010E0B078010663
:102D70000948A0F1100001D5037300E00273EB7065
:102D8000002404E0EB70012401E0EB7002242046F3
:102D900070BD0000D82D0020A82B0020A82D0020F9
:102DA0002DE9FF4F354E81B04FF0030B8246894627
:102DB0001C4686F800B0FEF7F9F9E0B3DFF8C080F2
:102DC0000127002598F80300012802D0022850D1DD
:102DD00032E02C4A8020946010730A2090731020F7
:102DE000C8F808901118401ECD7310F0FF00F9D1FB
:102DF0002820D0739DF80F0050749DF80E00907439
:102E00009DF80D00D0749DF80C001075600AADF8A7
:102E100000009DF8010090759DF80000D075072016
:102E200088F8047088F8000088F80FB0022158462E
:102E300088F803101CE01CE098F80F0038B95046E1
:102E4000FEF7B4F918B188F80370357011E098F8FE
:102E50000F00012806D15046FEF7A8F910B188F8F6
:102E6000037006E098F80F00022802D188F803707A
:102E70003070307805B0BDE8F08F0000AC00002065
:102E8000D82D0020A82D002070B50324FEF78EF960
:102E900020B3224D01232248E978012902D00229DA
:102EA0003AD11CE01F4908228A6080220A730A2254
:102EB0008A73A8600420A870102000220C18401EFD
:102EC000E27310F0FF00F9D12520C8732B710720A1
:102ED00028700320E8730220E87003241CE0E97BDB
:102EE00021B1012913D0022914D015E00C49027830
:102EF00010390024CA7042788A7082784A70C27889
:102F00000A7082794A72C0790872EB7004E0EB7043
:102F1000012401E0EB700224204670BDD82D002072
:102F2000A82B0020A82D002070B50324FEF73EF941
:102F300038B3224D0123224AE878012802D0022822
:102F400039D11FE01F493F2480208C6008730A207C
:102F50008873AA60A87868700620A87010200022E4
:102F60000E18401EF27310F0FF00F9D10320C87351
:102F70000A74CC742B7107212970E8730220E87061
:102F8000032418E0E87B20B101280FD0022810D0DC
:102F900011E00B48117810380024C171517881710B
:102FA00091784171D1780171EB7004E0EB700124EC
:102FB00001E0EB700224204670BD0000D82D0020F7
:102FC000A82B0020A82D002070B50324FEF7EEF8F2
:102FD00010B31A4D0123E878012802D002282BD122
:102FE0001BE01749002206208A600A73887315487F
:102FF000A8603F20A8810324AC7010200E18401E4A
:10300000F27310F0FF00F9D1CA732B7107202870FA
:10301000EC730220E87003240EE0E87B20B1012865
:1030200005D0022806D007E0EB70002404E0EB7026
:10303000012401E0EB700224204670BDD82D002051
:10304000A82D0020C82D0020FFB581B00E461D46DA
:103050000324FEF7ABF8A0B3234F0123F87801282F
:1030600002D002283CD12DE0204900220A208D60A8
:103070000A7388731020BE600C18401EE27310F0B3
:10308000FF00F9D12A20C8739DF80F0048749DF8FD
:103090000E0088749DF80D00C8749DF80C0008752A
:1030A000680AADF800009DF8010088759DF80000E1
:1030B000C8753B71072038700320F8730220F87040
:1030C00003240DE0F87B20B1012805D0022805D0AB
:1030D00006E0FB70002403E0FB7001E0FB700224BB
:1030E00005B02046F0BD0000D82D0020A82D0020FE
:1030F00010B500EB4114DDF80CC00AB184F8AC2225
:10310000B4F8B222624504D0BCF1000F01D0A4F89B
:10311000B2C294F8AF229A4202D00BB184F8AF3217
:1031200000F0BDFC002010BD38B50546002400208D
:103130000090284600F0B1FD002847D0284600F056
:10314000B4FD0090009808B9002038BD0098C0F385
:10315000C00018B1284601F0E1FC04430098C0F318
:10316000001018B1284601F03AFC04430098C0F35F
:10317000401018B1284601F07DFA04430098C0F3CE
:10318000806018B1284601F095FB04430098C0F315
:10319000406018B1284600F06AFE04430098C0F36E
:1031A000006018B1284601F0F9FA04430098C0F312
:1031B000407018B1284600F020FE04430098C0F388
:1031C000405018B1284600F02FFE04432046BCE7CB
:1031D0002DE9F04100EB410404F28C45B4F88C4435
:1031E000DDE9067C04F07F0600EB411404F52B7446
:1031F00066702D88C5F3C015A57022706771A4F89C
:1032000006C0E3704FF0000222766276A4F52B74BC
:1032100013B9012284F8B02200F041FC0020BDE87F
:10322000F0812DE9F84F06468A46914619780A9AA8
:103230003170597871709978DC78184601EB042167
:103240007180197931715C7974719C79B471DC7910
:10325000F471037A3372092A15D90922ADF80020D6
:10326000022910D800270BE06946FFF737F84178AC
:1032700004290AD00178BDF800201144ADF80010EF
:103280003179B942F0DCBDE8F88F07EBC70101EBFB
:103290000A0401782170417861708178A170C17849
:1032A000E17001792171417961718179A171C179EF
:1032B000E171017A21722179002502290CD90EE0F1
:1032C0006946FFF70BF8417805290BD00278BDF865
:1032D0000030D118ADF800102179A942F0DC7F1C34
:1032E0007FB2CDE709EBC50302781A7042785A70B5
:1032F00082789A70C278DA7090F804C090F80580ED
:103300006D1C0CEB08229A8082799A716DB2E3E70A
:103310002DE9FC470546087800270C464FF00109C7
:1033200001F1200805F2AC460D280ED2DFE800F0CE
:103330000E0718969696566F7D84619689002846EA
:10334000FDF737FF002800D1277087E02846FDF7FA
:103350002DFF002841D02846FEF755FF02205EE0F1
:10336000D4F8800080688047D5F8AC044772316893
:10337000284681F80A900021FEF776FE60718021D0
:103380002846FEF771FE20712846FDF712FF00283F
:1033900064D104F10404E06FC06880472846FDF75B
:1033A000CBFEC0B26077062104F8041CE16F896986
:1033B0008847A078CDE90070637F227F2178284676
:1033C000FFF706FFA078CDE90070637F227F617868
:1033D000A4F104042846FFF7FBFE3FE021462846FF
:1033E000FFF7EEF800BBD4F88000406B80470A205E
:1033F00015E0D4F88000806B804701282ED1E06F63
:10340000214602682846904770B9072007E0E06F20
:103410002146826828469047010002D1082020708A
:103420001CE02046FEF71EFF18E0E06F2146C26850
:10343000284690470146F4E721462846FEF7D8FF84
:103440000CE021462846FEF7EAFED4F880004068EA
:103450008047E06F41464268284690472846FDF77E
:10346000A5FE00281CD1D5F8AC04C07A002817D1DD
:10347000D4F8800000698047D5F8AC14284681F85C
:103480000B902146FEF7CBFED4F8800040688047C1
:10349000E06F4146426802B02846BDE8F047104759
:1034A000BDE8FC8730B400230B7505244C75CA8237
:1034B0000B834B8330BC1A46FEF74DBE30B400235D
:1034C0000B7509244C75CA820B834B8330BC1A469A
:1034D000FEF741BE704700000149002008707047A8
:1034E00064000020704770470220FEF719BBFDF70B
:1034F000AFFD012803D0022801D0FDF7A9FD7047D8
:1035000070477047164810B5417889B9012141705C
:103510000846FEF7E1FA0020FEF7DEFA0220FEF789
:10352000DBFA0320FEF7D8FA00210846FEF712FB6B
:103530000C484FF47A710068B0FBF1F0B0F1807F75
:103540000DD220F07F414FF0E020491E4161064A34
:10355000F0211170002181610721016110BDFEE79A
:10356000640000200400002023ED00E010B50E4CA4
:10357000207810B1012814D111E00C49002002F08C
:1035800007FC08B1FDF764FD0948007B012802D063
:103590000120207005E00320FEF7C2FAF2E704F0F4
:1035A00085F9002010BD000064000020D401002037
:1035B000982B002070477047704770477047FDF7A1
:1035C00047FD0120704700001CB501210420FDF7D4
:1035D0004DFE032101208DF8051000908DF80400A8
:1035E00000208DF80600074C8DF80700694620463C
:1035F000FDF735FD01212046FDF780FDC82000F0D4
:10360000A1F81CBD00080240044800294FF0010148
:1036100001D0FDF771BDFDF771BD0000000802404B
:1036200038B54FF4C060FDF70BFE43208DF8000065
:1036300001248DF801408DF802408DF80340684662
:10364000FDF7CAFD17208DF800008DF8014002201B
:103650008DF802008DF803406846FDF7BDFD38BDCA
:10366000FEB501210846FDF701FE4FF4D0500326B8
:1036700000908DF8056002208DF804000024224F90
:103680008DF806408DF8074069463846FDF7E7FC9F
:103690000A2209213846FDF71FFD0A220B21384670
:1036A000FDF71AFD0A220C213846FDF715FD01250C
:1036B00038158DF8065000908DF807508DF805608C
:1036C00069463846FDF7CBFC0A2211463846FDF71D
:1036D00003FD01218803FDF7F9FD01218020FDF79D
:1036E000D1FD1C208DF8080005208DF809008DF80B
:1036F0000A408DF80B5002A8FDF76EFD0121084627
:10370000FDF7CCFDFEBD00000000024010B5012118
:103710008C072046FEF75EFB002809D001212046D9
:10372000FEF73CFB06490A681AB10868401E0860AB
:1037300010BD2046BDE810400021FEF732BB00005E
:10374000180000200121FDF76DB90221FDF76AB9CB
:1037500070B50446017A0026C06801290CD0C16802
:1037600041F04001C160204600F0AAF8217A4FF4F0
:10377000803003291DD01EE0816B627A21F48031F4
:103780000AB141F480118163E068C16821F0401101
:1037900021F0880121F4202141F01001C160204670
:1037A00000F08EF8E07801283DD1E1682A20886099
:1037B0002EE04FF44030617A40F4301009B140F40B
:1037C0008010E16888631420FFF7BCFFE168C868D7
:1037D000227A032A01D140F48030C860207A03287D
:1037E00016D1E068016B21F0406101F1806121F4A4
:1037F0007F0141F0805505F534150563C820FFF7BA
:10380000A1FFE16845F400000863C820FFF79AFFB4
:10381000E078012807D1E068816821F01E010A31B3
:1038200041F020018160304670BD2DE9F041002754
:1038300004463D463E46FFF7C7FED4F80C0106603D
:103840000121204600F01DFA6069016821F00401A1
:103850000160E07A012813D1E0688021416230469E
:1038600061F30F00E268602161F31F409062E02283
:10387000304662F30F0061F31F40E168C1F80001B8
:103880001021204600F0B6F8204600F095F84FF0E1
:10389000FF3107E004EB850050F8902F916000683D
:1038A000C6606D1C2078A842F4D80121204600F0A3
:1038B0003BF8204600F05EF83846BDE8F081000095
:1038C000F8B50026054634460096124F0320FFF750
:1038D0003CFFE86800690090641CBC4201D90020EC
:1038E000F8BD00980028F1DA0099002041F00101AC
:1038F00000910099EA681161E9680A690092401C28
:10390000B84202D8009AD207F7D10320FFF71DFF73
:103910003046F8BD400D0300C0680022816821F0E8
:10392000010181601046704770B505460C46FFF7EF
:103930006BFE284600F0BEF9C10408D4012C0CD15E
:10394000D5F8CC1040F480500860C10405D524B9E6
:10395000D5F8CC1020F480500860BDE87040C82035
:10396000FFF7F0BEC0680022816841F0010181606C
:103970001046704710B5C268002319469361C468A9
:103980005A1E6261C4686260C4686261C468094AA0
:10399000A261C27802B91021C06841F00C5141F017
:1039A0000801826941F400118A430A438261184682
:1039B00010BD00000008008038B5002401462046F4
:1039C0000094009A42F010020092009ACB681A61AB
:1039D000074AC9680B690093401C904202D8009BBB
:1039E000DB06F7D40320FFF7B0FE204638BD000009
:1039F000400D030038B50024034620460094009A89
:103A000042F020020092009A61F38A12009200991B
:103A1000DA681161074AD9680B690093401C90422B
:103A200002D8009B9B06F7D40320FFF78EFE2046AA
:103A300038BD0000400D030010B500EB81000023ED
:103A400050F8901F4FF00042012464F3DC420A61F9
:103A50000068016821F0804141F000410160184692
:103A600010BD10B500EB81010023D1F89020116842
:103A700041F0404111F4402F09D0C1F38144022CA0
:103A800005D04069006910F47F0F03D004E0C068DE
:103A9000C06AF8E721F000411160184610BDF0B58A
:103AA00000EB81040025D4F890602F466B1E3A4647
:103AB000B360C378012B00D1042200EB411393F8CB
:103AC000B16236B1012E1DD0022E02D0032E23D1B9
:103AD0000EE042F0890293F8AE6242F4826276B957
:103AE00093F8B06242F04002B6B142F0200213E017
:103AF00042F0990293F8AE6242F4C06266B142F4B9
:103B0000807209E042F0010293F8AE6242F408725A
:103B100016B142F08002F2E7D4F89060F260012220
:103B20008A4041698E6916438E61C068816941F09F
:103B30000071816193F8AC0260F39C5793F8AD0279
:103B400060F3CE2793F8AE0260F3CF3793F8AF025D
:103B500002280CD027F4003093F8B112B3F8B22247
:103B600061F3934062F30A00032903D004E047F4B1
:103B70000030F1E740F00050D4F89010086028467B
:103B8000F0BDF0B5054605EB41140027D4F8BC6242
:103B90004FF4807238466EB1B4F8B2321E44761ECD
:103BA000B6FBF3F6B6B2964205D916461A02C4F829
:103BB000BC2200E0012694F8AE22AAB1B4F8B222E9
:103BC0007243C4F8BC2262F3120094F8B42266F384
:103BD000DC4062F35E7005EB8102D2F89030186130
:103BE000E878012803D007E0D4F8BC22EBE7D2F84C
:103BF0009030D4F8B802586152F8900F0368284604
:103C000000F045F860F35D73126823F0804040F0E7
:103C100000401060E87890BB94F8AE0278BBD4F80E
:103C2000BC2262B394F8B10230B1012810D002284E
:103C300002D0032819D10BE0E868C36AD21CC2F392
:103C40008F029BB2934210D2826942F020020BE0B5
:103C500068690069D21CC2F38F0280B2904204D21C
:103C6000E868826942F080628261D4F8BC020A4648
:103C700083B2D4F8B8020146284600F05DFF38460A
:103C8000F0BD4069026861F301020260704740695B
:103C9000806840F30000401C7047C068406900F035
:103CA0000100012800D000207047C0684169806988
:103CB00008407047D0F8CC00006820F02E00704714
:103CC000406940697047034610B508460021D21C80
:103CD0009208D3F8D03003E01C6840F8044B491C2C
:103CE0009142F9D310BD70B50546FFF7E3FF40F4EC
:103CF000807455F8CC0F04600A20FFF723FD296873
:103D000024F4807008601420FFF71CFD012070BDB2
:103D100070B500220123C2704026837014461546F8
:103D20008680012901D061B114E0C37208210170BD
:103D300004214FF0A04241709115C180022101720F
:103D400008E0C5720C210170062141701F4A4FF432
:103D5000A061C18002F50061C0E9032100210AE0F1
:103D600002EB411303F5106600EB810503F53063A8
:103D7000AE61491C6B6543788B42F1D802F58061D6
:103D800041614031C0F8CC10002108E002EB411342
:103D900000EB810503F5A063491CC5F8903003785A
:103DA0008B42F3D8002108E002EB013300EB8105E0
:103DB00003F58053491CC5F8D03003788B42F3D803
:103DC00002F56062C0F80C21204670BD000004407E
:103DD00010B5C2680024D068012920F0C04001D08D
:103DE00019B104E040F0005001E040F08040D060A4
:103DF0003220FFF7A7FC204610BD38B5044600214D
:103E0000C4F8101200200090D4F8AC0401682046D9
:103E10008847009820F0005000F100500090009872
:103E2000E1684861012038BD0CB50146D1F8900029
:103E300000680090009820F0004000F100400090E1
:103E4000009820F0804000F180400090009AD1F866
:103E50009000026000200190019820F4001000F50D
:103E6000001001900198CA68506101200CBD7CB51A
:103E70000546002400262846FFF722FF019000BFD8
:103E80001BE0019880B20121A140084214D005F145
:103E9000900050F82400006800900098C0F3C030F3
:103EA00028B12146284600F00DF8064304E02146DB
:103EB000284600F01BFA0643641C2878A042E0D88C
:103EC00030467CBD70B586B005460C4605F19000C5
:103ED00050F82460B0680590F0680490DDE90410A3
:103EE0000840059005F1900050F824000068039008
:103EF000002004900598C0F38000D0B1002001900C
:103F0000019820F00400001D01900198B06005F1B7
:103F1000900050F82400C0680190019820F0020041
:103F2000801C019005F1900050F824000199C160B7
:103F300073E00598C0F3401048B10020019001984B
:103F400020F02000203001900198B06065E00598D5
:103F5000C0F3C00078B305F1900050F82400C068A9
:103F60000190019820F00200801C019005F1900062
:103F700050F824000199C160052105F52370015511
:103F800000200190019820F010001030019001985D
:103F9000B06000200190019820F0080008300190E6
:103FA0000198B060059820F010000590E1B2284615
:103FB000FFF757FD31E0FFE70598C0F3802060B3BD
:103FC00005F1900050F82400C0680190019820F09D
:103FD0000200801C019005F1900050F82400019926
:103FE000C160E1B22846FFF73CFD00200190019836
:103FF00020F01000103001900198B060082105F504
:104000002370015500200190019820F4806000F594
:10401000806001900198B06000BF0598C0F3402017
:10402000F8B105F1900050F82400C06801900198A3
:1040300020F00200801C019005F1900050F824004F
:104040000199C160E1B22846FFF70BFD0020019005
:10405000019820F4007000F5007001900198B060A4
:1040600041E10598C0F30000002871D0E8780128EC
:1040700012D105F1900050F824000069029005F576
:104080002B7000EB441000690299C1F31201411A30
:1040900005F5147040F82410012105F52370015531
:1040A0000021783840F8241000200190019820F079
:1040B0000100401C01900198B0600398C0F381405A
:1040C00020B10398C0F3814002282AD105F1900065
:1040D00050F82400C0680190019820F00200801C74
:1040E000019005F1900050F824000199C160E1B2FF
:1040F0002846FFF7B6FC00200190019820F0100040
:10410000103001900198B06005F52B7000EB441061
:10411000007E80F0010105F52B7000EB4410017664
:10412000E1E00398C0F38140032899D1039820F07F
:10413000005000F10050039005F1900050F8240069
:1041400003990160012105F29B200155CBE0FFE7B7
:104150000598C0F34000002851D005F1900050F8B8
:104160002400C0680190019820F00200019005F140
:10417000900050F824000199C16005F52370005D9E
:10418000012804D1012105F29B2001552DE005F500
:104190002370005D052804D1042105F29B20015500
:1041A00023E005F52370005D062804D005F5237093
:1041B000005D082808D1002105F5057040F824109D
:1041C00003218730015510E00398C0F38140032894
:1041D0000BD105F52B7000EB4410007E80F001013F
:1041E00005F52B7000EB441001760020019001983A
:1041F00020F00200801C01900198B06073E00598E7
:10420000C0F3C01040B305F1900050F82400C0681E
:104210000190019820F00200801C019005F19000AF
:1042200050F824000199C16005F5057050F824107C
:10423000491C40F82410062178300155E1B2284687
:10424000FFF70FFC00200190019820F080008030E3
:1042500001900198B06046E00598C0F30010E8B303
:104260000398C0F3814003281ED105F1900050F857
:104270002400C0680190019820F00200801C019089
:1042800005F1900050F824000199C160E1B2284680
:10429000FFF7E7FB00200190019820F0100010309C
:1042A00001900198B06018E00398C0F3814020B1FC
:1042B0000398C0F3814002280FD1039820F00040FA
:1042C00000F100400390039820F08040039005F136
:1042D000900050F824000399016000E003E00321FE
:1042E00005F523700155012006B070BD7FB5054668
:1042F0000C4605F1900050F82460B0680390F06817
:104300000290DDE902100840039005F1900050F89A
:104310002400006801900398C0F38000D0B1002011
:104320000090009820F00400001D00900098B060FC
:1043300005F1900050F82400C0680090009820F02B
:104340000200801C009005F1900050F824000099B4
:10435000C1608CE10398C0F3401048B10020009088
:10436000009820F02000203000900098B0607EE19E
:104370000398C0F3000038B3002105F5057040F83C
:10438000241005F1900050F82400C06800900098B7
:1043900020F00200801C009005F1900050F82400ED
:1043A0000099C160E1B22846FFF75BFB0020009056
:1043B000009820F00100401C00900098B06001219E
:1043C00005F52370015552E10398C0F3C00010B306
:1043D00000200090009820F008000830009000981D
:1043E000B06005F1900050F82400C068009000987B
:1043F00020F00200801C009005F1900050F824008D
:104400000099C160E1B22846FFF72BFB052105F5B5
:10441000237001552BE10398C0F3001038B300213D
:1044200005F5057040F8241005F1900050F82400BF
:10443000C0680090009820F00200801C009005F1F8
:10444000900050F824000099C160E1B22846FFF7BF
:1044500008FB00200090009820F010001030009021
:104460000098B060032105F523700155FFE0039823
:10447000C0F3C01040B305F1900050F82400C068AC
:104480000090009820F00200801C009005F1900040
:1044900050F824000099C160E1B22846FFF7E1FA24
:1044A00005F5057050F82410491C40F82410062129
:1044B0007830015500200090009820F08000803076
:1044C00000900098B060D2E00398C0F3801038B339
:1044D000002105F5057040F8241005F1900050F812
:1044E0002400C0680090009820F00200801C00901A
:1044F00005F1900050F824000099C160E1B228460F
:10450000FFF7AFFA00200090009820F04000403004
:1045100000900098B060042105F523700155A6E0D5
:104520000398C0F3802060B305F1900050F8240098
:10453000C0680090009820F00200801C009005F1F7
:10454000900050F824000099C160E1B22846FFF7BE
:1045500088FA00200090009820F0100010300090A1
:104560000098B060082105F52370015500200090E7
:10457000009820F4806000F5806000900098B060A2
:1045800075E00398C0F34000002870D005F190005A
:1045900050F82400C0680090009820F002000090BD
:1045A00005F1900050F824000099C16005F52370D2
:1045B000005D012815D1012105F29B2001550198CC
:1045C000C0F38140022848D105F52B7000EB441060
:1045D000407E80F0010105F52B7000EB4410417620
:1045E0003BE005F52370005D032804D1022105F2AC
:1045F0009B20015531E005F52370005D04280FD1A3
:1046000005F52B7000EB44100079012803D1E1B2CD
:104610002846FFF711FA022105F29B2001551CE004
:1046200005F52370005D052804D1042105F29B20C7
:10463000015512E005F52370005D06280DD105F542
:10464000057050F82400032807D1032105F29B20B0
:1046500001550021873840F8241000200090009870
:1046600020F00200801C00900098B06000BF012084
:1046700004B070BD7CB50446E068C06A0090009844
:10468000C0F3417104F52B7000EB41100069C01CB0
:10469000C0F38F0671E000988004050C0098C0F309
:1046A000417104F52B7000EB41100069A84215D24E
:1046B0000098C0F3417104F52B7000EB41100069C4
:1046C00085B200200190019820F020002030019058
:1046D000E068806901998843E16888610098C0F3C7
:1046E000417104F52B7000EB41100069C01CC0F350
:1046F0008F060098C0F34172C0F3417304F52B702C
:1047000000EB43102B46C168204600F015FA0098D4
:10471000C0F3417104F52B7000EB4110C0684119E2
:104720000098C0F3417204F52B7000EB4210C16099
:104730000098C0F3417104F52B7000EB4110006943
:10474000411B0098C0F3417204F52B7000EB42103E
:1047500001610098C0F3417104F52B7000EB41102A
:10476000406941190098C0F3417204F52B7000EBC9
:1047700042104161E068C06A0090009880B2B04287
:104780000ADD0098C0F3417104F52B7000EB411075
:10479000006900287FF47FAF01207CBDFEB5044690
:1047A000002600250020009002900190D4F8CC0053
:1047B00000680290D4F8CC0000680190019820F0C5
:1047C00004000190019820F002000190019820F06F
:1047D00008000190019820F0200001900298C0F399
:1047E000400060B1D4F8AC04416820468847019885
:1047F00020F00200801C0190012645F0010502987E
:10480000C0F3C000002840D0019820F00800083014
:1048100001900298C0F38000012836D10121C4F82C
:1048200010120298C0F34140022804D00298C0F34D
:104830004140012828D16069006800900298C0F3C7
:104840004140022811D141F27071606941600098C5
:10485000C0F30100022818D0E07A012803D1022118
:104860002046FFF70EFA01260FE04BF68031606913
:1048700041600098C0F30100012806D001212046C4
:10488000FFF7FFF9012600E001260298C0F340106F
:1048900030B1019820F020002030019045F0010552
:1048A00016B12046FFF71FFA0199D4F8CC00016039
:1048B0002846FEBD7CB504466069006900900098FA
:1048C000C0F3417104F52B7000EB41100069C01C6E
:1048D000C0F38F0672E000988004050C0098C0F3C6
:1048E000417104F52B7000EB41100069A84216D20B
:1048F0000098C0F3417104F52B7000EB4110006982
:1049000085B200200190019820F0806000F1806065
:104910000190E068806901998843E16888610098A6
:10492000C0F3417104F52B7000EB41100069C01C0D
:10493000C0F38F060098C0F34172C0F3417304F5D1
:104940002B7000EB43102B46C168204600F0F4F8B2
:104950000098C0F3417104F52B7000EB4110C06862
:1049600041190098C0F3417204F52B7000EB42101E
:10497000C1600098C0F3417104F52B7000EB411049
:104980000069411B0098C0F3417204F52B7000EBE5
:10499000421001610098C0F3417104F52B7000EBE7
:1049A0004110406941190098C0F3417204F52B7021
:1049B00000EB42104161606900690090009880B28C
:1049C000B0420ADD0098C0F3417104F52B7000EB92
:1049D0004110006900287FF47EAF01207CBD7FB5C7
:1049E0000446002500200290029820F010001030AC
:1049F0000290E068806902998843E1688861E06814
:104A0000006A03900398C0F3030504F1900050F886
:104A10002500006800900398C0F34340022806D0A8
:104A2000032869D0052868D0072864D166E0039878
:104A3000C0F30A1000285DDD04F52B7000EB451073
:104A4000C068002856D00398C0F30A1204F52B70F2
:104A500000EB4510C1682046FFF735F90398C0F315
:104A6000030104F52B7000EB4110C0680399C1F3FA
:104A70000A1101440398C0F3030204F52B7000EB04
:104A80004210C1600398C0F3030104F52B7000EBE2
:104A9000411040690399C1F30A1101440398C0F31E
:104AA000030204F52B7000EB4210416104F52B70FA
:104AB00000EB4510466904F5147040F8256004F1D8
:104AC000900050F82500006901900198C0F3C9409A
:104AD00000280FDD009820F0004000F10040009019
:104AE000009820F08040009004F1900050F82500DC
:104AF0000099016003E000BF00BF00BF00BF00BF1E
:104B0000029820F0100010300290E068806902994D
:104B10000843E1688861012004B070BD08B5014612
:104B200000200090009820F00800083000900098C5
:104B3000CA685061012008BD30B505460020EC78F8
:104B4000002C0CD105EB8202DB1C9B08D2F8D02094
:104B500003E051F8045B1560641C9C42F9D330BD3E
:104B6000FEE700000FB4024610B504A9034B0398FA
:104B700000F0D6F810BC5DF814FB00005566010883
:104B80000FB4084B10B504A902AA039800F0C8F8A6
:104B9000044602A9002000F070FC204610BC5DF81D
:104BA00014FB00007B54010802E008C8121F08C172
:104BB000002AFAD170477047002001E001C1121F9E
:104BC000002AFBD1704700002DE9FF5FDDE90210EC
:104BD000020DDDF838B001430FD10F9801244BA32B
:104BE000012807D000980F9AC0E90031C0E90242BD
:104BF000BDE8FF9F6FEA0B01F4E7A2F2FF3244F633
:104C00001050424315140F9801280ED0A5EB0B004D
:104C1000401C4FF000043E4EDFF8F890B0F1000A5F
:104C2000A04605DACAF1000717E0CBF10000F0E773
:104C3000074612E0F80707D0224633464046494669
:104C4000FBF70CFC8046894622463346104619463F
:104C5000FBF704FC04460E467F10002FEAD1DDE985
:104C60000201BAF1000F42464B4602DAFBF7F6FBAF
:104C700001E0FBF763FC04460E460022264BFBF7DF
:104C8000C1FD03D84FF0FF30014607E00022234B5F
:104C900020463146FBF73CFBFBF79CFD102409E066
:104CA000002C0ADB0A220023FBF7E3FC019B3032D5
:104CB0001A55641E50EA0102F2D1641C019AC4F133
:104CC000110314440F9A012A09D00122084301D18B
:104CD0005B450FDD4FF0000205F101050DE00843D3
:104CE00003D1A3EB0B056D1E09E000204FF0110B63
:104CF0000F9088E701DA00226D1E002A83D0009809
:104D00000F99C0E90231C0E9004571E730000000A9
:104D1000000024400000F03F0000F0430000E03FAE
:104D20002DE9FF4F95B006469A468946002521E2B7
:104D3000252801D01799A6E00024F9492746761CBA
:104D40004FF0010803943278203A08FA02F0084242
:104D500002D00443761CF6E730782A2811D06FF091
:104D60002F023078A0F13001092916D8039944F0B8
:104D7000020401EB810102EB41010844761C03901F
:104D8000EFE759F8041B0391002903DA484244F481
:104D90000054039044F00204761C30782E2816D17B
:104DA00016F8010F44F004042A280DD06FF02F01EB
:104DB0003078A0F13002092A09D807EB870201EB0D
:104DC00042028718761CF3E759F8047B761C30788A
:104DD0006C280FD006DC4C2817D068280DD06A2824
:104DE00014D104E0742810D07A280FD10DE044F4D7
:104DF00000140AE044F4801401E044F44014717893
:104E0000814202D1761C04F58014761C96F800C00D
:104E1000BCF1660F10D01ADCBCF1580F70D00CDC5E
:104E2000BCF1000F6DD0BCF1450FF3D0BCF1460FC3
:104E3000F0D0BCF1470F24D1A4E1BCF1630F40D006
:104E4000BCF1640F74D0BCF1650F1AD19AE1BCF1CA
:104E5000700F6ED00CDCBCF1670FEDD0BCF1690FA8
:104E600075D0BCF16E0F12D0BCF16F0F09D1B3E059
:104E7000BCF1730F2FD0BCF1750F76D0BCF1780F59
:104E800074D017996046524690476D1C70E1C4F388
:104E90000250022809D003280DD0D9F800100428A8
:104EA0000DD00D6009F1040962E1D9F80010EA178C
:104EB000C1E90052F6E7D9F800100D80F2E70D7055
:104EC000F0E759F8041B8DF8001000208DF8010060
:104ED000EB46012003E059F804BB4FF0FF306107B7
:104EE0004FF0000102D40FE008F101018846B942F9
:104EF00011DA8045F8DB1BF808100029F4D10AE02C
:104F000060E03BE108F1010188468142FADB1BF8D1
:104F100008100029F6D103985346A0EB0807214654
:104F20003846179A00F091FA284400EB080506E08D
:104F30000DE049E01BF8010B524617999047B8F174
:104F40000108F7D2534621463846179A0DE10A2147
:104F5000C4F302524FF0000B0091022A07D059F817
:104F6000040BC117032A0AD00BE024E025E009F165
:104F7000070020F00702F2E80201914605E000B2C6
:104F8000C117042A01D140B2C117002906DA0A4626
:104F90000021404261EB02012D2202E0220504D5EE
:104FA0002B228DF80420012203E0E20701D0202209
:104FB000F7E7904654E00A2100E010214FF0000B83
:104FC00000910DE0102008E010204FF0000B44F09D
:104FD00004040827009003E008204FF0000B009025
:104FE000C4F30252022A05D059F8040B0021032A07
:104FF00008D009E009F1070020F00702F2E80201F9
:10500000914605E080B20021042A01D1C0B20021FE
:105010004FF00008220723D5BCF1700F28D0009B69
:1050200083F0100353EA0B0309D150EA010206D0C2
:1050300030228DF804208DF805C002229046009B96
:1050400083F0080353EA0B030AD150EA010201D1AD
:10505000620705D530228DF804204FF001087F1E2D
:10506000BCF1580F09D02FA20C920CAA029211E0A9
:1050700040228DF804200122E0E72FA2F4E75B46EE
:10508000009AFBF7F6FA0C9B9B5C029AA2F10102D4
:105090000292137050EA0102F1D1029804A9A1EB27
:1050A000000000F1200B600702D524F4803400E0FA
:1050B00001275F4502DDA7EB0B0000E0002000EBBD
:1050C0000B01009003984144A0EB01000390E00322
:1050D00006D453462146179A039800F0B6F90544C2
:1050E000002706E001A85246C05D179990476D1C45
:1050F0007F1C4745F6DBE0030CD553462146179A43
:10510000039800F0A2F9054404E0302052461799B4
:1051100090476D1C0099481E00900029F5DC1EE0A8
:10512000092801003031323334353637383961627D
:105130006364656600000000303132333435363741
:105140003839414243444546000000000298029924
:1051500052460078491C0291179990476D1CBBF18B
:105160000001ABF1010BF1DC50E100F05BF905440B
:1051700006F10106307800287FF4DAAD19B0284630
:10518000BDE8F08F600700D4062709F1070020F082
:105190000701F1E80220894600F00043190001D020
:1051A0009DA109E0210501D59CA105E0E10701D001
:1051B0009BA101E0AFF2840120F000431391BCF108
:1051C000650F11D009DCBCF1450F0DD0BCF1460FC5
:1051D00020D0BCF1470F3ED13EE0BCF1660F19D0A4
:1051E000BCF1670F7CD137E00021112F01DB1120CA
:1051F00000E0781CCDE9000104A90CA8FFF7E4FC4D
:10520000DDE90D010C9A4FF0000B07F10108109237
:1052100000914CE04FF000400097CDE9018004A9D7
:105220000CA8FFF7D1FCDDE90E20DDE90C314FF0D1
:10523000000B90461093009218B907F1010001EBA2
:105240000008B7EB080003D4C0F1FF3B07F10108E9
:10525000A8EB0700019043E0012F00DA01270021AD
:10526000112F01DD112000E03846CDE9000104A92D
:105270000CA8FFF7A9FCDDE90D010C9A00914FF095
:10528000000BB846109221070CD40099414500DA72
:105290008846B8F1010F05DD109AA8F10101515CB3
:1052A000302908D0B84202DA10F1040F06DA0121E1
:1052B000CDE9011014E0A8F10101E9E7002803DCC1
:1052C0008344A8EB000102E0411C414500DD884613
:1052D000A0EB0B0000F1010001904FF000400290A4
:1052E000200705D40198404502DB4FF0FF300190C4
:1052F00000208DF84B0002980DF14B07B0F1004FE4
:1053000026D002200C902B200D90029800280CDA59
:10531000404202902D200D9007E00A210298FBF7F1
:1053200092F93031029007F8011D0C99481E0C903B
:105330000029F2DC02980028EFD1A7F101010D98B5
:105340000870307800F0200040F0450007F8020DAA
:1053500011A8A0EB070000F1070002901398007855
:1053600000B1012000EB0801019801EBE071029807
:1053700001440398A0EB0100A0F101000390E003B9
:1053800006D453462146179A039800F05EF8054468
:105390001398007820B152461799904705F10105FE
:1053A000E00322D553462146179A039800F04DF8A2
:1053B00005441AE0BBF1000F07DB0098584504DDF7
:1053C0001098179910F80B0001E0179930205246F9
:1053D000904701986D1C401E0BF1010B019004D108
:1053E0002E205246179990476D1CB8F10001A8F184
:1053F0000108DFDC05E017F8010B524617999047CA
:105400006D1C0299481E02900029F4DC5346214687
:10541000179A0398A9E600002D0000002B00000059
:10542000200000002DE9F0410446002517461E46E5
:10543000880405D406E039462020B04705F101056F
:10544000641EF8D52846BDE8F0812DE9F0410446F8
:10545000002590461E46C80301D5302700E02027CE
:10546000880405D506E041463846B04705F10105F8
:10547000641EF8D52846BDE8F0810A68531C0B600D
:105480001070704710B504460A464078012304F1B5
:10549000300100F059FB08B1032010BDB4F82E1202
:1054A000A1F52A40553801D0022010BD94F86600BD
:1054B000D4F8671040EA01210848B0EB012F08D06A
:1054C00094F88210D4F8832041EA0221B0EB012F36
:1054D00001D1002010BD012010BD00000046415444
:1054E0002DE9F0470B46016816460A78303A092A3A
:1054F00008D84C783A2C05D1891C016012B10B20D8
:10550000BDE8F0876E4804681C60A4B1207820B123
:10551000607800F04BFBC1070FD04FF0000984F812
:105520000090484684F8019000F0DEFA0546C00776
:1055300008D00320E4E70C20E2E70EB140070FD4C7
:105540000020DDE7607804F10A02022100F0DCFAB5
:1055500040BB6089B0F5806F24D81EB1680701D5C3
:105560000A20CDE7002631462046FFF78BFF0128B1
:105570000CD104F5F7700179A1B1017AD0F80900D6
:1055800041EA002631462046FFF77CFF032801D080
:1055900040B901E00120B3E7B4F83B00B4F80AC019
:1055A000604501D00D20ABE7B4F8461029B994F856
:1055B0005400D4F8551040EA0121A16194F840004C
:1055C000E070E78F484316FA87F2226294F83D5064
:1055D000A570B4F841302381B4F8431029B994F888
:1055E0005010D4F8518041EA08214FEA5C1CB3FB0B
:1055F000FCF3C91B091AC91AB1FBF5F1891C012575
:1056000040F6F777E161B94200D302254FF6F7770C
:10561000B94201D303250FE0032D0DD01118184412
:105620001044C4E909104FF0FF3020614F4684F860
:105630000490032D07D039E094F85C10D4F85D7025
:1056400041EA0721EBE76771B4F8600016FA80F2CF
:1056500062616078012304F1300100F075FA28BB23
:10566000B4F82E02A0F52A4155391FD194F8300024
:10567000D4F8311040EA01201249884216D194F83A
:105680001402D4F8151240EA01200F4988420DD1C6
:1056900094F81C02D4F81D1240EA0120E06094F84E
:1056A0001802D4F8191240EA01202061044925703B
:1056B000091FE7620888401C0880E08040E700007E
:1056C000440100205252614172724161C269891ED7
:1056D000921E8A4201D800207047826A807801FBBE
:1056E000002070472DE9F041C76906465FEA0108CE
:1056F00006D000F0EBFF022808D20120BDE8F081BF
:10570000F5680DB1BD4204D3012502E0B842F5D3DE
:1057100045462C46641CBC4202D30224022D0AD307
:105720002146304600F0D2FF38B1411CE6D00128B6
:10573000E4D0AC42EED10020E0E76FF070422146A9
:10574000304601F097F94FF0FF3540B9B8F1000F3E
:1057500007D022464146304601F08CF908B1284670
:10576000CCE7F4603069411C03D0401E3061012059
:1057700070712046C2E700002DE9F047D0F818907C
:105780008A460B222021484601F070F800231C466F
:10579000DAF8000026460827825D761C202A36D9D2
:1057A0002F2A34D05C2A32D02E2A01D0BC4208DB0A
:1057B000082F3AD12E2A38D108240B2799060B0E30
:1057C000EAE7802A03D3264DA91811F8802C25A5D5
:1057D000944600E06D1C95F80080B8F1000F02D0EF
:1057E000E045F7D121E0A2F14105192D02D843F09F
:1057F000020308E0A2F16105192D04D8ACF12002E2
:1058000043F00103D2B209F80420641CC4E7304419
:10581000CAF80000202A01D8042000E0002024B1AA
:1058200099F80010E52903D005E00620BDE8F087CF
:10583000052189F80010082F01D199060B0E03F0FD
:105840000301012901D140F01000C3F381010129B6
:1058500001D140F0080089F80B000020E6E70000C5
:105860001081010820222A2B2C5B3D5D7C7F0000EB
:105870002DE9F0410446C0880E46401C07043F0C49
:1058800037D02169A1B3206842895209B7FBF2F3EE
:1058900002FB1372002A5FD1491C2161E16841B10A
:1058A000428983785209B7FBF2F25B1E1A4204D098
:1058B00052E00089B8421CD94EE000F007FF0546CF
:1058C00001281BD9681C32D02068C169A9423DD883
:1058D00076B1E168FFF706FF05000DD0012D0DD070
:1058E000681C24D00021206800F0C7FFF8B907E049
:1058F000FFE70420BDE8F0810720FBE70220F9E77D
:10590000206800214289303000F0B0FF294620682D
:10591000FFF7DCFE216800264FF00108C8620EE0A8
:1059200080F804800021206800F0A7FF08B1012062
:10593000E0E72068C16A491C761CF6B2C1622068A3
:105940008178B142ECD8C16A891BC162E560294601
:105950002068FFF7BBFE2061E78020684189490984
:10596000B7FBF1F201FB1271302202EB4111084446
:1059700060610020BEE710B50446042015E02068F1
:1059800000F07BFFB0B96269117861B1E52904D0FC
:105990002E2902D0D17A09070ED500212046FFF723
:1059A00067FF10B106E0042004E021690029E6D178
:1059B000002801D00021216110BD70B504460021EE
:1059C00000F042F80EE02169206800F056FF050063
:1059D00024D160690078E52807D030B10121204644
:1059E000FFF746FF0500EED018E02169206800F0BF
:1059F00044FF050012D1666920220021304600F0E4
:105A000035FF0B223046A16900F028FFA069C07A5B
:105A100000F018003073216801200871284670BD1D
:105A200010B50446C18800F00FF800280BD1216999
:105A3000206800F022FF002805D16269E52111707D
:105A400022680121117110BD70B50D46C1808168B9
:105A50000446012927D02068C2698A4223D921B986
:105A60000278032A08D1416A31B14289807852090B
:105A700012FB00F086B21CE0E1600189A94212D954
:105A80004189406A4909B5FBF1F108441DE02068ED
:105A900000F01CFE0146401C07D0022903D32068F9
:105AA000C069884203D8022070BD012070BDA81BC8
:105AB00085B2B542EBD2E1602068FFF707FE2168AE
:105AC00049894909B5FBF1F1084420612068418901
:105AD0004909B5FBF1F201FB1251302202EB4111F1
